{
  "address": "0x8bDA63810bD598B9719980c49167581fE90A24D1",
  "abi": [
    {
      "inputs": [],
      "stateMutability": "nonpayable",
      "type": "constructor"
    },
    {
      "anonymous": false,
      "inputs": [
        {
          "indexed": true,
          "internalType": "address",
          "name": "bridgeAssist",
          "type": "address"
        },
        {
          "indexed": true,
          "internalType": "address",
          "name": "token",
          "type": "address"
        }
      ],
      "name": "BridgeAssistAdded",
      "type": "event"
    },
    {
      "anonymous": false,
      "inputs": [
        {
          "indexed": true,
          "internalType": "address",
          "name": "bridgeAssist",
          "type": "address"
        },
        {
          "indexed": true,
          "internalType": "address",
          "name": "token",
          "type": "address"
        }
      ],
      "name": "BridgeAssistCreated",
      "type": "event"
    },
    {
      "anonymous": false,
      "inputs": [
        {
          "indexed": true,
          "internalType": "address",
          "name": "bridgeTransfer",
          "type": "address"
        },
        {
          "indexed": true,
          "internalType": "address",
          "name": "bridgeMint",
          "type": "address"
        },
        {
          "indexed": true,
          "internalType": "address",
          "name": "bridgeNative",
          "type": "address"
        }
      ],
      "name": "BridgeAssistImplementationsSet",
      "type": "event"
    },
    {
      "anonymous": false,
      "inputs": [
        {
          "indexed": true,
          "internalType": "address",
          "name": "bridgeAssist",
          "type": "address"
        },
        {
          "indexed": true,
          "internalType": "address",
          "name": "token",
          "type": "address"
        }
      ],
      "name": "BridgeAssistRemoved",
      "type": "event"
    },
    {
      "anonymous": false,
      "inputs": [
        {
          "indexed": false,
          "internalType": "uint8",
          "name": "version",
          "type": "uint8"
        }
      ],
      "name": "Initialized",
      "type": "event"
    },
    {
      "anonymous": false,
      "inputs": [
        {
          "indexed": true,
          "internalType": "bytes32",
          "name": "role",
          "type": "bytes32"
        },
        {
          "indexed": true,
          "internalType": "bytes32",
          "name": "previousAdminRole",
          "type": "bytes32"
        },
        {
          "indexed": true,
          "internalType": "bytes32",
          "name": "newAdminRole",
          "type": "bytes32"
        }
      ],
      "name": "RoleAdminChanged",
      "type": "event"
    },
    {
      "anonymous": false,
      "inputs": [
        {
          "indexed": true,
          "internalType": "bytes32",
          "name": "role",
          "type": "bytes32"
        },
        {
          "indexed": true,
          "internalType": "address",
          "name": "account",
          "type": "address"
        },
        {
          "indexed": true,
          "internalType": "address",
          "name": "sender",
          "type": "address"
        }
      ],
      "name": "RoleGranted",
      "type": "event"
    },
    {
      "anonymous": false,
      "inputs": [
        {
          "indexed": true,
          "internalType": "bytes32",
          "name": "role",
          "type": "bytes32"
        },
        {
          "indexed": true,
          "internalType": "address",
          "name": "account",
          "type": "address"
        },
        {
          "indexed": true,
          "internalType": "address",
          "name": "sender",
          "type": "address"
        }
      ],
      "name": "RoleRevoked",
      "type": "event"
    },
    {
      "inputs": [],
      "name": "ADD_REMOVE_LIMIT_PER_TIME",
      "outputs": [
        {
          "internalType": "uint256",
          "name": "",
          "type": "uint256"
        }
      ],
      "stateMutability": "view",
      "type": "function"
    },
    {
      "inputs": [],
      "name": "CREATOR_ROLE",
      "outputs": [
        {
          "internalType": "bytes32",
          "name": "",
          "type": "bytes32"
        }
      ],
      "stateMutability": "view",
      "type": "function"
    },
    {
      "inputs": [],
      "name": "DEFAULT_ADMIN_ROLE",
      "outputs": [
        {
          "internalType": "bytes32",
          "name": "",
          "type": "bytes32"
        }
      ],
      "stateMutability": "view",
      "type": "function"
    },
    {
      "inputs": [
        {
          "internalType": "address[]",
          "name": "bridges",
          "type": "address[]"
        }
      ],
      "name": "addBridgeAssists",
      "outputs": [],
      "stateMutability": "nonpayable",
      "type": "function"
    },
    {
      "inputs": [
        {
          "internalType": "enum BridgeFactoryUpgradeable.BridgeType",
          "name": "",
          "type": "uint8"
        }
      ],
      "name": "bridgeAssistImplementation",
      "outputs": [
        {
          "internalType": "address",
          "name": "",
          "type": "address"
        }
      ],
      "stateMutability": "view",
      "type": "function"
    },
    {
      "inputs": [
        {
          "internalType": "address",
          "name": "bridgeAssistTransferImplementation_",
          "type": "address"
        },
        {
          "internalType": "address",
          "name": "bridgeAssistMintImplementation_",
          "type": "address"
        },
        {
          "internalType": "address",
          "name": "bridgeAssistNativeImplementation_",
          "type": "address"
        }
      ],
      "name": "changeBridgeAssistImplementation",
      "outputs": [],
      "stateMutability": "nonpayable",
      "type": "function"
    },
    {
      "inputs": [
        {
          "internalType": "enum BridgeFactoryUpgradeable.BridgeType",
          "name": "bridgeType",
          "type": "uint8"
        },
        {
          "internalType": "address",
          "name": "token",
          "type": "address"
        },
        {
          "internalType": "uint256",
          "name": "limitPerSend",
          "type": "uint256"
        },
        {
          "internalType": "address",
          "name": "feeWallet",
          "type": "address"
        },
        {
          "internalType": "uint256",
          "name": "feeSend",
          "type": "uint256"
        },
        {
          "internalType": "uint256",
          "name": "feeFulfill",
          "type": "uint256"
        },
        {
          "internalType": "address",
          "name": "owner",
          "type": "address"
        },
        {
          "internalType": "address[]",
          "name": "relayers",
          "type": "address[]"
        },
        {
          "internalType": "uint256",
          "name": "relayerConsensusThreshold",
          "type": "uint256"
        }
      ],
      "name": "createBridgeAssist",
      "outputs": [
        {
          "internalType": "address",
          "name": "bridge",
          "type": "address"
        }
      ],
      "stateMutability": "nonpayable",
      "type": "function"
    },
    {
      "inputs": [
        {
          "internalType": "address",
          "name": "token",
          "type": "address"
        },
        {
          "internalType": "uint256",
          "name": "index",
          "type": "uint256"
        }
      ],
      "name": "getBridgeByToken",
      "outputs": [
        {
          "internalType": "address",
          "name": "",
          "type": "address"
        }
      ],
      "stateMutability": "view",
      "type": "function"
    },
    {
      "inputs": [
        {
          "internalType": "address",
          "name": "token",
          "type": "address"
        },
        {
          "internalType": "uint256",
          "name": "offset",
          "type": "uint256"
        },
        {
          "internalType": "uint256",
          "name": "limit",
          "type": "uint256"
        }
      ],
      "name": "getBridgesByToken",
      "outputs": [
        {
          "internalType": "address[]",
          "name": "",
          "type": "address[]"
        }
      ],
      "stateMutability": "view",
      "type": "function"
    },
    {
      "inputs": [
        {
          "internalType": "address",
          "name": "token",
          "type": "address"
        }
      ],
      "name": "getBridgesByTokenLength",
      "outputs": [
        {
          "internalType": "uint256",
          "name": "",
          "type": "uint256"
        }
      ],
      "stateMutability": "view",
      "type": "function"
    },
    {
      "inputs": [
        {
          "internalType": "uint256",
          "name": "index",
          "type": "uint256"
        }
      ],
      "name": "getCreatedBridgeInfo",
      "outputs": [
        {
          "components": [
            {
              "internalType": "address",
              "name": "bridgeAssist",
              "type": "address"
            },
            {
              "internalType": "address",
              "name": "token",
              "type": "address"
            }
          ],
          "internalType": "struct BridgeFactoryUpgradeable.BridgeAssistInfo",
          "name": "",
          "type": "tuple"
        }
      ],
      "stateMutability": "view",
      "type": "function"
    },
    {
      "inputs": [
        {
          "internalType": "uint256",
          "name": "offset",
          "type": "uint256"
        },
        {
          "internalType": "uint256",
          "name": "limit",
          "type": "uint256"
        }
      ],
      "name": "getCreatedBridgesInfo",
      "outputs": [
        {
          "components": [
            {
              "internalType": "address",
              "name": "bridgeAssist",
              "type": "address"
            },
            {
              "internalType": "address",
              "name": "token",
              "type": "address"
            }
          ],
          "internalType": "struct BridgeFactoryUpgradeable.BridgeAssistInfo[]",
          "name": "",
          "type": "tuple[]"
        }
      ],
      "stateMutability": "view",
      "type": "function"
    },
    {
      "inputs": [],
      "name": "getCreatedBridgesLength",
      "outputs": [
        {
          "internalType": "uint256",
          "name": "",
          "type": "uint256"
        }
      ],
      "stateMutability": "view",
      "type": "function"
    },
    {
      "inputs": [
        {
          "internalType": "bytes32",
          "name": "role",
          "type": "bytes32"
        }
      ],
      "name": "getRoleAdmin",
      "outputs": [
        {
          "internalType": "bytes32",
          "name": "",
          "type": "bytes32"
        }
      ],
      "stateMutability": "view",
      "type": "function"
    },
    {
      "inputs": [
        {
          "internalType": "bytes32",
          "name": "role",
          "type": "bytes32"
        },
        {
          "internalType": "address",
          "name": "account",
          "type": "address"
        }
      ],
      "name": "grantRole",
      "outputs": [],
      "stateMutability": "nonpayable",
      "type": "function"
    },
    {
      "inputs": [
        {
          "internalType": "bytes32",
          "name": "role",
          "type": "bytes32"
        },
        {
          "internalType": "address",
          "name": "account",
          "type": "address"
        }
      ],
      "name": "hasRole",
      "outputs": [
        {
          "internalType": "bool",
          "name": "",
          "type": "bool"
        }
      ],
      "stateMutability": "view",
      "type": "function"
    },
    {
      "inputs": [
        {
          "internalType": "address",
          "name": "bridgeAssistTransferImplementation_",
          "type": "address"
        },
        {
          "internalType": "address",
          "name": "bridgeAssistMintImplementation_",
          "type": "address"
        },
        {
          "internalType": "address",
          "name": "bridgeAssistNativeImplementation_",
          "type": "address"
        },
        {
          "internalType": "address",
          "name": "owner",
          "type": "address"
        }
      ],
      "name": "initialize",
      "outputs": [],
      "stateMutability": "nonpayable",
      "type": "function"
    },
    {
      "inputs": [
        {
          "internalType": "address[]",
          "name": "bridges",
          "type": "address[]"
        }
      ],
      "name": "removeBridgeAssists",
      "outputs": [],
      "stateMutability": "nonpayable",
      "type": "function"
    },
    {
      "inputs": [
        {
          "internalType": "bytes32",
          "name": "role",
          "type": "bytes32"
        },
        {
          "internalType": "address",
          "name": "account",
          "type": "address"
        }
      ],
      "name": "renounceRole",
      "outputs": [],
      "stateMutability": "nonpayable",
      "type": "function"
    },
    {
      "inputs": [
        {
          "internalType": "bytes32",
          "name": "role",
          "type": "bytes32"
        },
        {
          "internalType": "address",
          "name": "account",
          "type": "address"
        }
      ],
      "name": "revokeRole",
      "outputs": [],
      "stateMutability": "nonpayable",
      "type": "function"
    },
    {
      "inputs": [
        {
          "internalType": "bytes4",
          "name": "interfaceId",
          "type": "bytes4"
        }
      ],
      "name": "supportsInterface",
      "outputs": [
        {
          "internalType": "bool",
          "name": "",
          "type": "bool"
        }
      ],
      "stateMutability": "view",
      "type": "function"
    }
  ],
  "transactionHash": "0x62bfb6bfbff5c0fe22860a0511917d6e4b4b49dda94c8ef1171e71d63a558f88",
  "args": [],
  "numDeployments": 1,
  "solcInputHash": "4002e5e254812c79856d5c5172ff683d",
  "bytecode": "0x608060405234801561001057600080fd5b5061001961001e565b6100dd565b600054610100900460ff161561008a5760405162461bcd60e51b815260206004820152602760248201527f496e697469616c697a61626c653a20636f6e747261637420697320696e697469604482015266616c697a696e6760c81b606482015260840160405180910390fd5b60005460ff908116146100db576000805460ff191660ff9081179091556040519081527f7f26b83ff96e1f2b6a682f133852f6798a09c465da95921460cefb38474024989060200160405180910390a15b565b61237880620000ed6000396000f3fe608060405234801561001057600080fd5b50600436106101375760003560e01c8063a217fddf116100b8578063d547741f1161007c578063d547741f146102df578063db04fbef146102f2578063ecf103e0146102fa578063f5aa45ee1461030d578063f8c8765e14610315578063ff8d07601461032857600080fd5b8063a217fddf14610250578063a919262314610258578063b286027814610283578063b7109c3714610296578063bc8a6dab146102b657600080fd5b806341a712c4116100ff57806341a712c4146101d05780638aeda25a146101e357806391d148541461020a5780639c96a2491461021d5780639e6cbec71461023057600080fd5b806301ffc9a71461013c57806309399b3014610164578063248a9ca3146101795780632f2ff15d146101aa57806336568abe146101bd575b600080fd5b61014f61014a366004611bc2565b610348565b60405190151581526020015b60405180910390f35b610177610172366004611c0c565b61037f565b005b61019c610187366004611c57565b60009081526065602052604090206001015490565b60405190815260200161015b565b6101776101b8366004611c70565b610570565b6101776101cb366004611c70565b61059a565b6101776101de366004611d58565b610618565b61019c7f828634d95e775031b9ff576b159a8509d3053581a8c9c4d7d86899e0afcd882f81565b61014f610218366004611c70565b6108e1565b61019c61022b366004611d95565b61090c565b61024361023e366004611c57565b61092d565b60405161015b9190611db2565b61019c600081565b61026b610266366004611de5565b610a26565b6040516001600160a01b03909116815260200161015b565b61026b610291366004611e92565b610bda565b6102a96102a4366004611ebe565b610ccd565b60405161015b9190611f37565b61026b6102c4366004611f4a565b6097602052600090815260409020546001600160a01b031681565b6101776102ed366004611c70565b610ea1565b61019c606481565b610177610308366004611d58565b610ec6565b61019c6110f0565b610177610323366004611f65565b611101565b61033b610336366004611fc1565b611360565b60405161015b9190611fe3565b60006001600160e01b03198216637965db0b60e01b148061037957506301ffc9a760e01b6001600160e01b03198316145b92915050565b600061038a81611536565b6000805260976020527f683723e34a772b6e4f2c919bba7fa32ed8ea11a8325f54da7db716e9d9dd98c7546001600160a01b0385811691161415806104065750600160005260976020527f53bdca72fa8d2e145a1b3bd11cde5bd75428acd18eac3d6adf4e06e7e637706d546001600160a01b03848116911614155b806104485750600260005260976020527fd6ca216b3b8b63bcc0099d5c8294d1780d598ac9b3a29b15c3c3e68c85f6e30c546001600160a01b03838116911614155b6104995760405162461bcd60e51b815260206004820152601960248201527f4475706c696361746520696d706c656d656e746174696f6e730000000000000060448201526064015b60405180910390fd5b60976020527f683723e34a772b6e4f2c919bba7fa32ed8ea11a8325f54da7db716e9d9dd98c780546001600160a01b03199081166001600160a01b038781169182179093557f53bdca72fa8d2e145a1b3bd11cde5bd75428acd18eac3d6adf4e06e7e637706d80548316878516908117909155600260009081527fd6ca216b3b8b63bcc0099d5c8294d1780d598ac9b3a29b15c3c3e68c85f6e30c805495881695909416851790935560405190927f1fba076c61ddcf861cdc37f3e0b2f6e9305275300216bf81cbd9033e05f328ca91a450505050565b60008281526065602052604090206001015461058b81611536565b6105958383611543565b505050565b6001600160a01b038116331461060a5760405162461bcd60e51b815260206004820152602f60248201527f416363657373436f6e74726f6c3a2063616e206f6e6c792072656e6f756e636560448201526e103937b632b9903337b91039b2b63360891b6064820152608401610490565b61061482826115c9565b5050565b600061062381611536565b8151600081900361066a5760405162461bcd60e51b81526020600482015260116024820152705a65726f206c656e67746820617272617960781b6044820152606401610490565b60648111156106bb5760405162461bcd60e51b815260206004820152601a60248201527f4172726179206c656e6774682065786365656473206c696d69740000000000006044820152606401610490565b60005b818110156108db5760006001600160a01b03168482815181106106e3576106e361205c565b60200260200101516001600160a01b0316036107385761070281611630565b6040516020016107129190612096565b60408051601f198184030181529082905262461bcd60e51b8252610490916004016120db565b61076584828151811061074d5761074d61205c565b602002602001015160986116c390919063ffffffff16565b6107825761077281611630565b604051602001610712919061210e565b60008482815181106107965761079661205c565b60200260200101516001600160a01b03166382bfefc86040518163ffffffff1660e01b8152600401602060405180830381865afa1580156107db573d6000803e3d6000fd5b505050506040513d601f19601f820116820180604052508101906107ff9190612153565b90506001600160a01b0381166108285761081882611630565b6040516020016107129190612170565b61087885838151811061083d5761083d61205c565b6020026020010151609a6000846001600160a01b03166001600160a01b031681526020019081526020016000206116c390919063ffffffff16565b50806001600160a01b03168583815181106108955761089561205c565b60200260200101516001600160a01b03167f7e47dab8afa7341cd3e835154f5aa693e96117bd5545f06c075601c0559e069760405160405180910390a3506001016106be565b50505050565b60009182526065602090815260408084206001600160a01b0393909316845291905290205460ff1690565b6001600160a01b0381166000908152609a60205260408120610379906116d8565b604080518082019091526000808252602082015261094b60986116d8565b82106109895760405162461bcd60e51b815260206004820152600d60248201526c092dcecc2d8d2c840d2dcc8caf609b1b6044820152606401610490565b60006109966098846116e2565b90506040518060400160405280826001600160a01b03168152602001826001600160a01b03166382bfefc86040518163ffffffff1660e01b8152600401602060405180830381865afa1580156109f0573d6000803e3d6000fd5b505050506040513d601f19601f82011682018060405250810190610a149190612153565b6001600160a01b031690529392505050565b60007f828634d95e775031b9ff576b159a8509d3053581a8c9c4d7d86899e0afcd882f610a5281611536565b6000609760008d6002811115610a6a57610a6a612046565b6002811115610a7b57610a7b612046565b81526020810191909152604001600020546001600160a01b0316905080610adb5760405162461bcd60e51b8152602060048201526014602482015273109497d516541157d253959053125117d253541360621b6044820152606401610490565b610ae4816116ee565b604051633406c17560e11b81529093506001600160a01b0384169063680d82ea90610b21908e908e908e908e908e908e908e908e906004016121b5565b600060405180830381600087803b158015610b3b57600080fd5b505af1158015610b4f573d6000803e3d6000fd5b50505050610b678360986116c390919063ffffffff16565b506001600160a01b038b166000908152609a60205260409020610b8a90846116c3565b508a6001600160a01b0316836001600160a01b03167fd9cba6538dbfc3bc2cfefe73c785f6a1a4c50e780195c79d86688d8f6a6da23460405160405180910390a350509998505050505050505050565b6001600160a01b0382166000908152609a60205260408120610bfb906116d8565b600003610c455760405162461bcd60e51b8152602060048201526018602482015277273790313934b233b2b990313c903a3434b9903a37b5b2b760411b6044820152606401610490565b6001600160a01b0383166000908152609a60205260409020610c66906116d8565b8210610ca45760405162461bcd60e51b815260206004820152600d60248201526c092dcecc2d8d2c840d2dcc8caf609b1b6044820152606401610490565b6001600160a01b0383166000908152609a60205260409020610cc690836116e2565b9392505050565b6001600160a01b0383166000908152609a60205260409020606090610cf1906116d8565b600003610d3b5760405162461bcd60e51b8152602060048201526018602482015277273790313934b233b2b990313c903a3434b9903a37b5b2b760411b6044820152606401610490565b81600003610d795760405162461bcd60e51b815260206004820152600b60248201526a4c696d69743a207a65726f60a81b6044820152606401610490565b6001600160a01b0384166000908152609a60205260409020610d9a906116d8565b610da4838561222b565b1115610de95760405162461bcd60e51b8152602060048201526014602482015273125b9d985b1a59081bd9999cd95d0b5b1a5b5a5d60621b6044820152606401610490565b60008267ffffffffffffffff811115610e0457610e04611ca0565b604051908082528060200260200182016040528015610e2d578160200160208202803683370190505b50905060005b83811015610e9857610e66610e48868361222b565b6001600160a01b0388166000908152609a60205260409020906116e2565b828281518110610e7857610e7861205c565b6001600160a01b0390921660209283029190910190910152600101610e33565b50949350505050565b600082815260656020526040902060010154610ebc81611536565b61059583836115c9565b6000610ed181611536565b81516000819003610f185760405162461bcd60e51b81526020600482015260116024820152705a65726f206c656e67746820617272617960781b6044820152606401610490565b6064811115610f695760405162461bcd60e51b815260206004820152601a60248201527f4172726179206c656e6774682065786365656473206c696d69740000000000006044820152606401610490565b60005b818110156108db57610fa1848281518110610f8957610f8961205c565b6020026020010151609861178890919063ffffffff16565b610fbe57610fae81611630565b604051602001610712919061223e565b6000848281518110610fd257610fd261205c565b60200260200101516001600160a01b03166382bfefc86040518163ffffffff1660e01b8152600401602060405180830381865afa158015611017573d6000803e3d6000fd5b505050506040513d601f19601f8201168201806040525081019061103b9190612153565b905061108d8583815181106110525761105261205c565b6020026020010151609a6000846001600160a01b03166001600160a01b0316815260200190815260200160002061178890919063ffffffff16565b50806001600160a01b03168583815181106110aa576110aa61205c565b60200260200101516001600160a01b03167f2615a9e874c601a8e854f4d4e70c6f9834de146d18f20aa54ae12c69c37a2ff760405160405180910390a350600101610f6c565b60006110fc60986116d8565b905090565b600054610100900460ff16158080156111215750600054600160ff909116105b8061113b5750303b15801561113b575060005460ff166001145b61119e5760405162461bcd60e51b815260206004820152602e60248201527f496e697469616c697a61626c653a20636f6e747261637420697320616c72656160448201526d191e481a5b9a5d1a585b1a5e995960921b6064820152608401610490565b6000805460ff1916600117905580156111c1576000805461ff0019166101001790555b6001600160a01b03821661120d5760405162461bcd60e51b81526020600482015260136024820152724f776e65723a207a65726f206164647265737360681b6044820152606401610490565b6001600160a01b03851615611260576000805260976020527f683723e34a772b6e4f2c919bba7fa32ed8ea11a8325f54da7db716e9d9dd98c780546001600160a01b0319166001600160a01b0387161790555b6001600160a01b038416156112b457600160005260976020527f53bdca72fa8d2e145a1b3bd11cde5bd75428acd18eac3d6adf4e06e7e637706d80546001600160a01b0319166001600160a01b0386161790555b6001600160a01b0383161561130857600260005260976020527fd6ca216b3b8b63bcc0099d5c8294d1780d598ac9b3a29b15c3c3e68c85f6e30c80546001600160a01b0319166001600160a01b0385161790555b611313600083611543565b8015611359576000805461ff0019169055604051600181527f7f26b83ff96e1f2b6a682f133852f6798a09c465da95921460cefb38474024989060200160405180910390a15b5050505050565b6060816000036113a05760405162461bcd60e51b815260206004820152600b60248201526a4c696d69743a207a65726f60a81b6044820152606401610490565b6113aa60986116d8565b6113b4838561222b565b11156113f95760405162461bcd60e51b8152602060048201526014602482015273125b9d985b1a59081bd9999cd95d0b5b1a5b5a5d60621b6044820152606401610490565b60008267ffffffffffffffff81111561141457611414611ca0565b60405190808252806020026020018201604052801561145957816020015b60408051808201909152600080825260208201528152602001906001900390816114325790505b50905060005b8381101561152e57600061147e611476878461222b565b6098906116e2565b90506040518060400160405280826001600160a01b03168152602001826001600160a01b03166382bfefc86040518163ffffffff1660e01b8152600401602060405180830381865afa1580156114d8573d6000803e3d6000fd5b505050506040513d601f19601f820116820180604052508101906114fc9190612153565b6001600160a01b031681525083838151811061151a5761151a61205c565b60209081029190910101525060010161145f565b509392505050565b611540813361179d565b50565b61154d82826108e1565b6106145760008281526065602090815260408083206001600160a01b03851684529091529020805460ff191660011790556115853390565b6001600160a01b0316816001600160a01b0316837f2f8788117e7eff1d82e926ec794901d17c78024a50270940304540a733656f0d60405160405180910390a45050565b6115d382826108e1565b156106145760008281526065602090815260408083206001600160a01b0385168085529252808320805460ff1916905551339285917ff6391f5c32d9c69d2a47ea670b442974b53935d1edc7fd64eb21e047a839171b9190a45050565b6060600061163d836117d0565b600101905060008167ffffffffffffffff81111561165d5761165d611ca0565b6040519080825280601f01601f191660200182016040528015611687576020820181803683370190505b5090508181016020015b600019016f181899199a1a9b1b9c1cb0b131b232b360811b600a86061a8153600a850494508461169157509392505050565b6000610cc6836001600160a01b0384166118a8565b6000610379825490565b6000610cc683836118f7565b6000763d602d80600a3d3981f3363d3d373d3d3d363d730000008260601b60e81c176000526e5af43d82803e903d91602b57fd5bf38260781b17602052603760096000f090506001600160a01b0381166117835760405162461bcd60e51b8152602060048201526016602482015275115490cc4c4d8dce8818dc99585d194819985a5b195960521b6044820152606401610490565b919050565b6000610cc6836001600160a01b038416611921565b6117a782826108e1565b610614576117b481611a14565b6117bf836020611a26565b604051602001610712929190612276565b60008072184f03e93ff9f4daa797ed6e38ed64bf6a1f0160401b831061180f5772184f03e93ff9f4daa797ed6e38ed64bf6a1f0160401b830492506040015b6d04ee2d6d415b85acef8100000000831061183b576d04ee2d6d415b85acef8100000000830492506020015b662386f26fc10000831061185957662386f26fc10000830492506010015b6305f5e1008310611871576305f5e100830492506008015b612710831061188557612710830492506004015b60648310611897576064830492506002015b600a83106103795760010192915050565b60008181526001830160205260408120546118ef57508154600181810184556000848152602080822090930184905584548482528286019093526040902091909155610379565b506000610379565b600082600001828154811061190e5761190e61205c565b9060005260206000200154905092915050565b60008181526001830160205260408120548015611a0a5760006119456001836122eb565b8554909150600090611959906001906122eb565b90508181146119be5760008660000182815481106119795761197961205c565b906000526020600020015490508087600001848154811061199c5761199c61205c565b6000918252602080832090910192909255918252600188019052604090208390555b85548690806119cf576119cf6122fe565b600190038181906000526020600020016000905590558560010160008681526020019081526020016000206000905560019350505050610379565b6000915050610379565b60606103796001600160a01b03831660145b60606000611a35836002612314565b611a4090600261222b565b67ffffffffffffffff811115611a5857611a58611ca0565b6040519080825280601f01601f191660200182016040528015611a82576020820181803683370190505b509050600360fc1b81600081518110611a9d57611a9d61205c565b60200101906001600160f81b031916908160001a905350600f60fb1b81600181518110611acc57611acc61205c565b60200101906001600160f81b031916908160001a9053506000611af0846002612314565b611afb90600161222b565b90505b6001811115611b73576f181899199a1a9b1b9c1cb0b131b232b360811b85600f1660108110611b2f57611b2f61205c565b1a60f81b828281518110611b4557611b4561205c565b60200101906001600160f81b031916908160001a90535060049490941c93611b6c8161232b565b9050611afe565b508315610cc65760405162461bcd60e51b815260206004820181905260248201527f537472696e67733a20686578206c656e67746820696e73756666696369656e746044820152606401610490565b600060208284031215611bd457600080fd5b81356001600160e01b031981168114610cc657600080fd5b6001600160a01b038116811461154057600080fd5b803561178381611bec565b600080600060608486031215611c2157600080fd5b8335611c2c81611bec565b92506020840135611c3c81611bec565b91506040840135611c4c81611bec565b809150509250925092565b600060208284031215611c6957600080fd5b5035919050565b60008060408385031215611c8357600080fd5b823591506020830135611c9581611bec565b809150509250929050565b634e487b7160e01b600052604160045260246000fd5b600082601f830112611cc757600080fd5b8135602067ffffffffffffffff80831115611ce457611ce4611ca0565b8260051b604051601f19603f83011681018181108482111715611d0957611d09611ca0565b604052938452858101830193838101925087851115611d2757600080fd5b83870191505b84821015611d4d57611d3e82611c01565b83529183019190830190611d2d565b979650505050505050565b600060208284031215611d6a57600080fd5b813567ffffffffffffffff811115611d8157600080fd5b611d8d84828501611cb6565b949350505050565b600060208284031215611da757600080fd5b8135610cc681611bec565b60408101610379828480516001600160a01b03908116835260209182015116910152565b80356003811061178357600080fd5b60008060008060008060008060006101208a8c031215611e0457600080fd5b611e0d8a611dd6565b985060208a0135611e1d81611bec565b975060408a0135965060608a0135611e3481611bec565b955060808a0135945060a08a0135935060c08a0135611e5281611bec565b925060e08a013567ffffffffffffffff811115611e6e57600080fd5b611e7a8c828d01611cb6565b9250506101008a013590509295985092959850929598565b60008060408385031215611ea557600080fd5b8235611eb081611bec565b946020939093013593505050565b600080600060608486031215611ed357600080fd5b8335611ede81611bec565b95602085013595506040909401359392505050565b600081518084526020808501945080840160005b83811015611f2c5781516001600160a01b031687529582019590820190600101611f07565b509495945050505050565b602081526000610cc66020830184611ef3565b600060208284031215611f5c57600080fd5b610cc682611dd6565b60008060008060808587031215611f7b57600080fd5b8435611f8681611bec565b93506020850135611f9681611bec565b92506040850135611fa681611bec565b91506060850135611fb681611bec565b939692955090935050565b60008060408385031215611fd457600080fd5b50508035926020909101359150565b602080825282518282018190526000919060409081850190868401855b828110156120395761202984835180516001600160a01b03908116835260209182015116910152565b9284019290850190600101612000565b5091979650505050505050565b634e487b7160e01b600052602160045260246000fd5b634e487b7160e01b600052603260045260246000fd5b60005b8381101561208d578181015183820152602001612075565b50506000910152565b7f427269646765207a65726f206164647265737320617420696e6465783a2000008152600082516120ce81601e850160208701612072565b91909101601e0192915050565b60208152600082518060208401526120fa816040850160208701612072565b601f01601f19169190910160400192915050565b7f427269646765206475706c696361746520617420696e6465783a20000000000081526000825161214681601b850160208701612072565b91909101601b0192915050565b60006020828403121561216557600080fd5b8151610cc681611bec565b7f546f6b656e207a65726f206164647265737320617420696e6465783a200000008152600082516121a881601d850160208701612072565b91909101601d0192915050565b6001600160a01b0389811682526020820189905287811660408301526060820187905260808201869052841660a082015261010060c082018190526000906121ff83820186611ef3565b9150508260e08301529998505050505050505050565b634e487b7160e01b600052601160045260246000fd5b8082018082111561037957610379612215565b7f427269646765206e6f7420666f756e6420617420696e6465783a20000000000081526000825161214681601b850160208701612072565b7f416363657373436f6e74726f6c3a206163636f756e74200000000000000000008152600083516122ae816017850160208801612072565b7001034b99036b4b9b9b4b733903937b6329607d1b60179184019182015283516122df816028840160208801612072565b01602801949350505050565b8181038181111561037957610379612215565b634e487b7160e01b600052603160045260246000fd5b808202811582820484141761037957610379612215565b60008161233a5761233a612215565b50600019019056fea2646970667358221220018a7b9dc3595c1ddd3a33bd10fa75b4cb074ba9c3f21c5a375a9e165fd5e12d64736f6c63430008120033",
  "devdoc": {
    "author": "gotbit",
    "details": "Creates BridgeAssists using the openzeppelin/Clones library",
    "events": {
      "Initialized(uint8)": {
        "details": "Triggered when the contract has been initialized or reinitialized."
      },
      "RoleAdminChanged(bytes32,bytes32,bytes32)": {
        "details": "Emitted when `newAdminRole` is set as ``role``'s admin role, replacing `previousAdminRole` `DEFAULT_ADMIN_ROLE` is the starting admin for all roles, despite {RoleAdminChanged} not being emitted signaling this. _Available since v3.1._"
      },
      "RoleGranted(bytes32,address,address)": {
        "details": "Emitted when `account` is granted `role`. `sender` is the account that originated the contract call, an admin role bearer except when using {AccessControl-_setupRole}."
      },
      "RoleRevoked(bytes32,address,address)": {
        "details": "Emitted when `account` is revoked `role`. `sender` is the account that originated the contract call:   - if using `revokeRole`, it is the admin role bearer   - if using `renounceRole`, it is the role bearer (i.e. `account`)"
      }
    },
    "kind": "dev",
    "methods": {
      "addBridgeAssists(address[])": {
        "details": "Third-party bridges interface must match the implementation bridge",
        "params": {
          "bridges": "Bridge addresses to add"
        }
      },
      "changeBridgeAssistImplementation(address,address,address)": {
        "details": "Changes the implementation address for future proxy bridges",
        "params": {
          "bridgeAssistMintImplementation_": "New mint bridge implementaion address",
          "bridgeAssistNativeImplementation_": "New native bridge implementaion address",
          "bridgeAssistTransferImplementation_": "New transfer bridge implementaion address"
        }
      },
      "createBridgeAssist(uint8,address,uint256,address,uint256,uint256,address,address[],uint256)": {
        "params": {
          "bridgeType": "0 - MINT, 1 - NATIVE",
          "feeFulfill": "Fee numerator (fulfill)",
          "feeSend": "Fee numerator (send) (not used if NATIVE)",
          "feeWallet": "Platform fee wallet",
          "limitPerSend": "Limit per one send (not used if NATIVE)",
          "owner": "Bridge DEFAULT_ADMIN_ROLE holder",
          "relayerConsensusThreshold": "Number of signers required to complete a transaction",
          "relayers": "Backend signers",
          "token": "Supported token to send (not used if NATIVE)"
        }
      },
      "getBridgeByToken(address,uint256)": {
        "params": {
          "index": "Bridge index to get Requirements: {index} must be less than or equal to {getBridgesByTokenLength}.",
          "token": "Token address"
        }
      },
      "getBridgesByToken(address,uint256,uint256)": {
        "params": {
          "limit": "Return size limit Requirements: {offset} + {limit} must be less than or equal to {getBridgesByTokenLength}.",
          "offset": "Offset to start with",
          "token": "Token address"
        }
      },
      "getBridgesByTokenLength(address)": {
        "params": {
          "token": "Token address"
        }
      },
      "getCreatedBridgeInfo(uint256)": {
        "params": {
          "index": "Bridge index to get Requirements: {index} must be less than {getCreatedBridgesLength}."
        }
      },
      "getCreatedBridgesInfo(uint256,uint256)": {
        "params": {
          "limit": "Return size limit Requirements: {offset} + {limit} must be less than or equal to {getCreatedBridgesLength}.",
          "offset": "Offset to start with"
        }
      },
      "getRoleAdmin(bytes32)": {
        "details": "Returns the admin role that controls `role`. See {grantRole} and {revokeRole}. To change a role's admin, use {_setRoleAdmin}."
      },
      "grantRole(bytes32,address)": {
        "details": "Grants `role` to `account`. If `account` had not been already granted `role`, emits a {RoleGranted} event. Requirements: - the caller must have ``role``'s admin role. May emit a {RoleGranted} event."
      },
      "hasRole(bytes32,address)": {
        "details": "Returns `true` if `account` has been granted `role`."
      },
      "initialize(address,address,address,address)": {
        "params": {
          "bridgeAssistMintImplementation_": "BridgeAssistMint implementation",
          "bridgeAssistNativeImplementation_": "BridgeAssistNative implementation",
          "bridgeAssistTransferImplementation_": "BridgeAssistTransfer implementation",
          "owner": "DEFAULT_ADMIN_ROLE holder"
        }
      },
      "removeBridgeAssists(address[])": {
        "params": {
          "bridges": "Bridge addresses to remove"
        }
      },
      "renounceRole(bytes32,address)": {
        "details": "Revokes `role` from the calling account. Roles are often managed via {grantRole} and {revokeRole}: this function's purpose is to provide a mechanism for accounts to lose their privileges if they are compromised (such as when a trusted device is misplaced). If the calling account had been revoked `role`, emits a {RoleRevoked} event. Requirements: - the caller must be `account`. May emit a {RoleRevoked} event."
      },
      "revokeRole(bytes32,address)": {
        "details": "Revokes `role` from `account`. If `account` had been granted `role`, emits a {RoleRevoked} event. Requirements: - the caller must have ``role``'s admin role. May emit a {RoleRevoked} event."
      },
      "supportsInterface(bytes4)": {
        "details": "See {IERC165-supportsInterface}."
      }
    },
    "title": "BridgeFactory",
    "version": 1
  },
  "userdoc": {
    "kind": "user",
    "methods": {
      "addBridgeAssists(address[])": {
        "notice": "Allows to add third-party bridges to the stored list"
      },
      "changeBridgeAssistImplementation(address,address,address)": {
        "notice": "Allows to change template for creating new bridges"
      },
      "createBridgeAssist(uint8,address,uint256,address,uint256,uint256,address,address[],uint256)": {
        "notice": "Creates new BridgeAssist contract"
      },
      "getBridgeByToken(address,uint256)": {
        "notice": "Gets bridge address by token address"
      },
      "getBridgesByToken(address,uint256,uint256)": {
        "notice": "Gets list of bridge addresses by token address"
      },
      "getBridgesByTokenLength(address)": {
        "notice": "Gets the number of created bridges for the specified token"
      },
      "getCreatedBridgeInfo(uint256)": {
        "notice": "Gets created bridge info by index"
      },
      "getCreatedBridgesInfo(uint256,uint256)": {
        "notice": "Gets created bridges info"
      },
      "getCreatedBridgesLength()": {
        "notice": "Gets the number of created bridges"
      },
      "initialize(address,address,address,address)": {
        "notice": "Initializes the BridgeFactory contract."
      },
      "removeBridgeAssists(address[])": {
        "notice": "Allows to remove bridges from the stored list"
      }
    },
    "notice": "Contract for creating BridgeAssist contracts",
    "version": 1
  },
  "storageLayout": {
    "storage": [
      {
        "astId": 521,
        "contract": "contracts/BridgeFactoryUpgradeable.sol:BridgeFactoryUpgradeable",
        "label": "_initialized",
        "offset": 0,
        "slot": "0",
        "type": "t_uint8"
      },
      {
        "astId": 524,
        "contract": "contracts/BridgeFactoryUpgradeable.sol:BridgeFactoryUpgradeable",
        "label": "_initializing",
        "offset": 1,
        "slot": "0",
        "type": "t_bool"
      },
      {
        "astId": 1681,
        "contract": "contracts/BridgeFactoryUpgradeable.sol:BridgeFactoryUpgradeable",
        "label": "__gap",
        "offset": 0,
        "slot": "1",
        "type": "t_array(t_uint256)50_storage"
      },
      {
        "astId": 2606,
        "contract": "contracts/BridgeFactoryUpgradeable.sol:BridgeFactoryUpgradeable",
        "label": "__gap",
        "offset": 0,
        "slot": "51",
        "type": "t_array(t_uint256)50_storage"
      },
      {
        "astId": 28,
        "contract": "contracts/BridgeFactoryUpgradeable.sol:BridgeFactoryUpgradeable",
        "label": "_roles",
        "offset": 0,
        "slot": "101",
        "type": "t_mapping(t_bytes32,t_struct(RoleData)23_storage)"
      },
      {
        "astId": 335,
        "contract": "contracts/BridgeFactoryUpgradeable.sol:BridgeFactoryUpgradeable",
        "label": "__gap",
        "offset": 0,
        "slot": "102",
        "type": "t_array(t_uint256)49_storage"
      },
      {
        "astId": 8973,
        "contract": "contracts/BridgeFactoryUpgradeable.sol:BridgeFactoryUpgradeable",
        "label": "bridgeAssistImplementation",
        "offset": 0,
        "slot": "151",
        "type": "t_mapping(t_enum(BridgeType)8955,t_address)"
      },
      {
        "astId": 8976,
        "contract": "contracts/BridgeFactoryUpgradeable.sol:BridgeFactoryUpgradeable",
        "label": "_createdBridges",
        "offset": 0,
        "slot": "152",
        "type": "t_struct(AddressSet)3916_storage"
      },
      {
        "astId": 8981,
        "contract": "contracts/BridgeFactoryUpgradeable.sol:BridgeFactoryUpgradeable",
        "label": "_bridgesByToken",
        "offset": 0,
        "slot": "154",
        "type": "t_mapping(t_address,t_struct(AddressSet)3916_storage)"
      }
    ],
    "types": {
      "t_address": {
        "encoding": "inplace",
        "label": "address",
        "numberOfBytes": "20"
      },
      "t_array(t_bytes32)dyn_storage": {
        "base": "t_bytes32",
        "encoding": "dynamic_array",
        "label": "bytes32[]",
        "numberOfBytes": "32"
      },
      "t_array(t_uint256)49_storage": {
        "base": "t_uint256",
        "encoding": "inplace",
        "label": "uint256[49]",
        "numberOfBytes": "1568"
      },
      "t_array(t_uint256)50_storage": {
        "base": "t_uint256",
        "encoding": "inplace",
        "label": "uint256[50]",
        "numberOfBytes": "1600"
      },
      "t_bool": {
        "encoding": "inplace",
        "label": "bool",
        "numberOfBytes": "1"
      },
      "t_bytes32": {
        "encoding": "inplace",
        "label": "bytes32",
        "numberOfBytes": "32"
      },
      "t_enum(BridgeType)8955": {
        "encoding": "inplace",
        "label": "enum BridgeFactoryUpgradeable.BridgeType",
        "numberOfBytes": "1"
      },
      "t_mapping(t_address,t_bool)": {
        "encoding": "mapping",
        "key": "t_address",
        "label": "mapping(address => bool)",
        "numberOfBytes": "32",
        "value": "t_bool"
      },
      "t_mapping(t_address,t_struct(AddressSet)3916_storage)": {
        "encoding": "mapping",
        "key": "t_address",
        "label": "mapping(address => struct EnumerableSetUpgradeable.AddressSet)",
        "numberOfBytes": "32",
        "value": "t_struct(AddressSet)3916_storage"
      },
      "t_mapping(t_bytes32,t_struct(RoleData)23_storage)": {
        "encoding": "mapping",
        "key": "t_bytes32",
        "label": "mapping(bytes32 => struct AccessControlUpgradeable.RoleData)",
        "numberOfBytes": "32",
        "value": "t_struct(RoleData)23_storage"
      },
      "t_mapping(t_bytes32,t_uint256)": {
        "encoding": "mapping",
        "key": "t_bytes32",
        "label": "mapping(bytes32 => uint256)",
        "numberOfBytes": "32",
        "value": "t_uint256"
      },
      "t_mapping(t_enum(BridgeType)8955,t_address)": {
        "encoding": "mapping",
        "key": "t_enum(BridgeType)8955",
        "label": "mapping(enum BridgeFactoryUpgradeable.BridgeType => address)",
        "numberOfBytes": "32",
        "value": "t_address"
      },
      "t_struct(AddressSet)3916_storage": {
        "encoding": "inplace",
        "label": "struct EnumerableSetUpgradeable.AddressSet",
        "members": [
          {
            "astId": 3915,
            "contract": "contracts/BridgeFactoryUpgradeable.sol:BridgeFactoryUpgradeable",
            "label": "_inner",
            "offset": 0,
            "slot": "0",
            "type": "t_struct(Set)3601_storage"
          }
        ],
        "numberOfBytes": "64"
      },
      "t_struct(RoleData)23_storage": {
        "encoding": "inplace",
        "label": "struct AccessControlUpgradeable.RoleData",
        "members": [
          {
            "astId": 20,
            "contract": "contracts/BridgeFactoryUpgradeable.sol:BridgeFactoryUpgradeable",
            "label": "members",
            "offset": 0,
            "slot": "0",
            "type": "t_mapping(t_address,t_bool)"
          },
          {
            "astId": 22,
            "contract": "contracts/BridgeFactoryUpgradeable.sol:BridgeFactoryUpgradeable",
            "label": "adminRole",
            "offset": 0,
            "slot": "1",
            "type": "t_bytes32"
          }
        ],
        "numberOfBytes": "64"
      },
      "t_struct(Set)3601_storage": {
        "encoding": "inplace",
        "label": "struct EnumerableSetUpgradeable.Set",
        "members": [
          {
            "astId": 3596,
            "contract": "contracts/BridgeFactoryUpgradeable.sol:BridgeFactoryUpgradeable",
            "label": "_values",
            "offset": 0,
            "slot": "0",
            "type": "t_array(t_bytes32)dyn_storage"
          },
          {
            "astId": 3600,
            "contract": "contracts/BridgeFactoryUpgradeable.sol:BridgeFactoryUpgradeable",
            "label": "_indexes",
            "offset": 0,
            "slot": "1",
            "type": "t_mapping(t_bytes32,t_uint256)"
          }
        ],
        "numberOfBytes": "64"
      },
      "t_uint256": {
        "encoding": "inplace",
        "label": "uint256",
        "numberOfBytes": "32"
      },
      "t_uint8": {
        "encoding": "inplace",
        "label": "uint8",
        "numberOfBytes": "1"
      }
    }
  }
}