{
  "address": "0x4F18a162dcfa08bB7797DbBCd910F4A0c0FaE1a3",
  "abi": [
    {
      "inputs": [],
      "stateMutability": "nonpayable",
      "type": "constructor"
    },
    {
      "anonymous": false,
      "inputs": [
        {
          "indexed": true,
          "internalType": "string",
          "name": "chain",
          "type": "string"
        },
        {
          "indexed": false,
          "internalType": "uint256",
          "name": "exchangeRate",
          "type": "uint256"
        }
      ],
      "name": "ChainAdded",
      "type": "event"
    },
    {
      "anonymous": false,
      "inputs": [
        {
          "indexed": true,
          "internalType": "string",
          "name": "chain",
          "type": "string"
        }
      ],
      "name": "ChainRemoved",
      "type": "event"
    },
    {
      "anonymous": false,
      "inputs": [],
      "name": "EIP712DomainChanged",
      "type": "event"
    },
    {
      "anonymous": false,
      "inputs": [
        {
          "indexed": false,
          "internalType": "uint256",
          "name": "feeSend",
          "type": "uint256"
        },
        {
          "indexed": false,
          "internalType": "uint256",
          "name": "feeFulfill",
          "type": "uint256"
        }
      ],
      "name": "FeeSet",
      "type": "event"
    },
    {
      "anonymous": false,
      "inputs": [
        {
          "indexed": true,
          "internalType": "address",
          "name": "feeWallet",
          "type": "address"
        }
      ],
      "name": "FeeWalletSet",
      "type": "event"
    },
    {
      "anonymous": false,
      "inputs": [
        {
          "indexed": true,
          "internalType": "string",
          "name": "fromUser",
          "type": "string"
        },
        {
          "indexed": true,
          "internalType": "address",
          "name": "toUser",
          "type": "address"
        },
        {
          "indexed": false,
          "internalType": "string",
          "name": "fromChain",
          "type": "string"
        },
        {
          "indexed": false,
          "internalType": "string",
          "name": "toChain",
          "type": "string"
        },
        {
          "indexed": false,
          "internalType": "uint256",
          "name": "amount",
          "type": "uint256"
        },
        {
          "indexed": false,
          "internalType": "uint256",
          "name": "exchangeRate",
          "type": "uint256"
        }
      ],
      "name": "FulfilledTokens",
      "type": "event"
    },
    {
      "anonymous": false,
      "inputs": [
        {
          "indexed": false,
          "internalType": "uint8",
          "name": "version",
          "type": "uint8"
        }
      ],
      "name": "Initialized",
      "type": "event"
    },
    {
      "anonymous": false,
      "inputs": [
        {
          "indexed": false,
          "internalType": "uint256",
          "name": "limitPerSend",
          "type": "uint256"
        }
      ],
      "name": "LimitPerSendSet",
      "type": "event"
    },
    {
      "anonymous": false,
      "inputs": [
        {
          "indexed": false,
          "internalType": "address",
          "name": "account",
          "type": "address"
        }
      ],
      "name": "Paused",
      "type": "event"
    },
    {
      "anonymous": false,
      "inputs": [
        {
          "indexed": true,
          "internalType": "uint256",
          "name": "value",
          "type": "uint256"
        }
      ],
      "name": "RelayerConsensusThresholdSet",
      "type": "event"
    },
    {
      "anonymous": false,
      "inputs": [
        {
          "indexed": true,
          "internalType": "address",
          "name": "relayer",
          "type": "address"
        }
      ],
      "name": "RelayerSet",
      "type": "event"
    },
    {
      "anonymous": false,
      "inputs": [
        {
          "indexed": true,
          "internalType": "bytes32",
          "name": "role",
          "type": "bytes32"
        },
        {
          "indexed": true,
          "internalType": "bytes32",
          "name": "previousAdminRole",
          "type": "bytes32"
        },
        {
          "indexed": true,
          "internalType": "bytes32",
          "name": "newAdminRole",
          "type": "bytes32"
        }
      ],
      "name": "RoleAdminChanged",
      "type": "event"
    },
    {
      "anonymous": false,
      "inputs": [
        {
          "indexed": true,
          "internalType": "bytes32",
          "name": "role",
          "type": "bytes32"
        },
        {
          "indexed": true,
          "internalType": "address",
          "name": "account",
          "type": "address"
        },
        {
          "indexed": true,
          "internalType": "address",
          "name": "sender",
          "type": "address"
        }
      ],
      "name": "RoleGranted",
      "type": "event"
    },
    {
      "anonymous": false,
      "inputs": [
        {
          "indexed": true,
          "internalType": "bytes32",
          "name": "role",
          "type": "bytes32"
        },
        {
          "indexed": true,
          "internalType": "address",
          "name": "account",
          "type": "address"
        },
        {
          "indexed": true,
          "internalType": "address",
          "name": "sender",
          "type": "address"
        }
      ],
      "name": "RoleRevoked",
      "type": "event"
    },
    {
      "anonymous": false,
      "inputs": [
        {
          "indexed": false,
          "internalType": "address",
          "name": "fromUser",
          "type": "address"
        },
        {
          "indexed": true,
          "internalType": "string",
          "name": "toUser",
          "type": "string"
        },
        {
          "indexed": false,
          "internalType": "string",
          "name": "fromChain",
          "type": "string"
        },
        {
          "indexed": false,
          "internalType": "string",
          "name": "toChain",
          "type": "string"
        },
        {
          "indexed": false,
          "internalType": "uint256",
          "name": "amount",
          "type": "uint256"
        },
        {
          "indexed": false,
          "internalType": "uint256",
          "name": "exchangeRate",
          "type": "uint256"
        }
      ],
      "name": "SentTokens",
      "type": "event"
    },
    {
      "anonymous": false,
      "inputs": [
        {
          "indexed": false,
          "internalType": "address",
          "name": "account",
          "type": "address"
        }
      ],
      "name": "Unpaused",
      "type": "event"
    },
    {
      "inputs": [],
      "name": "CURRENT_CHAIN",
      "outputs": [
        {
          "internalType": "string",
          "name": "",
          "type": "string"
        }
      ],
      "stateMutability": "view",
      "type": "function"
    },
    {
      "inputs": [],
      "name": "CURRENT_CHAIN_B32",
      "outputs": [
        {
          "internalType": "bytes32",
          "name": "",
          "type": "bytes32"
        }
      ],
      "stateMutability": "view",
      "type": "function"
    },
    {
      "inputs": [],
      "name": "DEFAULT_ADMIN_ROLE",
      "outputs": [
        {
          "internalType": "bytes32",
          "name": "",
          "type": "bytes32"
        }
      ],
      "stateMutability": "view",
      "type": "function"
    },
    {
      "inputs": [],
      "name": "FEE_DENOMINATOR",
      "outputs": [
        {
          "internalType": "uint256",
          "name": "",
          "type": "uint256"
        }
      ],
      "stateMutability": "view",
      "type": "function"
    },
    {
      "inputs": [],
      "name": "FULFILL_TX_TYPEHASH",
      "outputs": [
        {
          "internalType": "bytes32",
          "name": "",
          "type": "bytes32"
        }
      ],
      "stateMutability": "view",
      "type": "function"
    },
    {
      "inputs": [],
      "name": "MANAGER_ROLE",
      "outputs": [
        {
          "internalType": "bytes32",
          "name": "",
          "type": "bytes32"
        }
      ],
      "stateMutability": "view",
      "type": "function"
    },
    {
      "inputs": [],
      "name": "MAX_RELAYERS",
      "outputs": [
        {
          "internalType": "uint256",
          "name": "",
          "type": "uint256"
        }
      ],
      "stateMutability": "view",
      "type": "function"
    },
    {
      "inputs": [],
      "name": "TOKEN",
      "outputs": [
        {
          "internalType": "address",
          "name": "",
          "type": "address"
        }
      ],
      "stateMutability": "view",
      "type": "function"
    },
    {
      "inputs": [
        {
          "internalType": "string[]",
          "name": "chains",
          "type": "string[]"
        },
        {
          "internalType": "uint256[]",
          "name": "exchangeRatesFromPow",
          "type": "uint256[]"
        }
      ],
      "name": "addChains",
      "outputs": [],
      "stateMutability": "nonpayable",
      "type": "function"
    },
    {
      "inputs": [],
      "name": "eip712Domain",
      "outputs": [
        {
          "internalType": "bytes1",
          "name": "fields",
          "type": "bytes1"
        },
        {
          "internalType": "string",
          "name": "name",
          "type": "string"
        },
        {
          "internalType": "string",
          "name": "version",
          "type": "string"
        },
        {
          "internalType": "uint256",
          "name": "chainId",
          "type": "uint256"
        },
        {
          "internalType": "address",
          "name": "verifyingContract",
          "type": "address"
        },
        {
          "internalType": "bytes32",
          "name": "salt",
          "type": "bytes32"
        },
        {
          "internalType": "uint256[]",
          "name": "extensions",
          "type": "uint256[]"
        }
      ],
      "stateMutability": "view",
      "type": "function"
    },
    {
      "inputs": [
        {
          "internalType": "bytes32",
          "name": "",
          "type": "bytes32"
        }
      ],
      "name": "exchangeRateFrom",
      "outputs": [
        {
          "internalType": "uint256",
          "name": "",
          "type": "uint256"
        }
      ],
      "stateMutability": "view",
      "type": "function"
    },
    {
      "inputs": [],
      "name": "feeFulfill",
      "outputs": [
        {
          "internalType": "uint256",
          "name": "",
          "type": "uint256"
        }
      ],
      "stateMutability": "view",
      "type": "function"
    },
    {
      "inputs": [],
      "name": "feeSend",
      "outputs": [
        {
          "internalType": "uint256",
          "name": "",
          "type": "uint256"
        }
      ],
      "stateMutability": "view",
      "type": "function"
    },
    {
      "inputs": [],
      "name": "feeWallet",
      "outputs": [
        {
          "internalType": "address",
          "name": "",
          "type": "address"
        }
      ],
      "stateMutability": "view",
      "type": "function"
    },
    {
      "inputs": [
        {
          "components": [
            {
              "internalType": "uint256",
              "name": "amount",
              "type": "uint256"
            },
            {
              "internalType": "string",
              "name": "fromUser",
              "type": "string"
            },
            {
              "internalType": "address",
              "name": "toUser",
              "type": "address"
            },
            {
              "internalType": "string",
              "name": "fromChain",
              "type": "string"
            },
            {
              "internalType": "uint256",
              "name": "nonce",
              "type": "uint256"
            }
          ],
          "internalType": "struct BridgeAssistGenericUpgradeable.FulfillTx",
          "name": "transaction",
          "type": "tuple"
        },
        {
          "internalType": "bytes[]",
          "name": "signatures",
          "type": "bytes[]"
        }
      ],
      "name": "fulfill",
      "outputs": [],
      "stateMutability": "nonpayable",
      "type": "function"
    },
    {
      "inputs": [
        {
          "internalType": "string",
          "name": "",
          "type": "string"
        },
        {
          "internalType": "string",
          "name": "",
          "type": "string"
        },
        {
          "internalType": "uint256",
          "name": "",
          "type": "uint256"
        }
      ],
      "name": "fulfilledAt",
      "outputs": [
        {
          "internalType": "uint256",
          "name": "",
          "type": "uint256"
        }
      ],
      "stateMutability": "view",
      "type": "function"
    },
    {
      "inputs": [],
      "name": "getRelayers",
      "outputs": [
        {
          "internalType": "address[]",
          "name": "",
          "type": "address[]"
        }
      ],
      "stateMutability": "view",
      "type": "function"
    },
    {
      "inputs": [
        {
          "internalType": "bytes32",
          "name": "role",
          "type": "bytes32"
        }
      ],
      "name": "getRoleAdmin",
      "outputs": [
        {
          "internalType": "bytes32",
          "name": "",
          "type": "bytes32"
        }
      ],
      "stateMutability": "view",
      "type": "function"
    },
    {
      "inputs": [
        {
          "internalType": "address",
          "name": "user",
          "type": "address"
        }
      ],
      "name": "getUserTransactions",
      "outputs": [
        {
          "components": [
            {
              "internalType": "uint256",
              "name": "amount",
              "type": "uint256"
            },
            {
              "internalType": "uint256",
              "name": "timestamp",
              "type": "uint256"
            },
            {
              "internalType": "address",
              "name": "fromUser",
              "type": "address"
            },
            {
              "internalType": "string",
              "name": "toUser",
              "type": "string"
            },
            {
              "internalType": "string",
              "name": "fromChain",
              "type": "string"
            },
            {
              "internalType": "string",
              "name": "toChain",
              "type": "string"
            },
            {
              "internalType": "uint256",
              "name": "nonce",
              "type": "uint256"
            },
            {
              "internalType": "uint256",
              "name": "block",
              "type": "uint256"
            }
          ],
          "internalType": "struct BridgeAssistGenericUpgradeable.Transaction[]",
          "name": "",
          "type": "tuple[]"
        }
      ],
      "stateMutability": "view",
      "type": "function"
    },
    {
      "inputs": [
        {
          "internalType": "address",
          "name": "user",
          "type": "address"
        }
      ],
      "name": "getUserTransactionsAmount",
      "outputs": [
        {
          "internalType": "uint256",
          "name": "",
          "type": "uint256"
        }
      ],
      "stateMutability": "view",
      "type": "function"
    },
    {
      "inputs": [
        {
          "internalType": "address",
          "name": "user_",
          "type": "address"
        },
        {
          "internalType": "uint256",
          "name": "offset_",
          "type": "uint256"
        },
        {
          "internalType": "uint256",
          "name": "limit_",
          "type": "uint256"
        }
      ],
      "name": "getUserTransactionsSlice",
      "outputs": [
        {
          "components": [
            {
              "internalType": "uint256",
              "name": "amount",
              "type": "uint256"
            },
            {
              "internalType": "uint256",
              "name": "timestamp",
              "type": "uint256"
            },
            {
              "internalType": "address",
              "name": "fromUser",
              "type": "address"
            },
            {
              "internalType": "string",
              "name": "toUser",
              "type": "string"
            },
            {
              "internalType": "string",
              "name": "fromChain",
              "type": "string"
            },
            {
              "internalType": "string",
              "name": "toChain",
              "type": "string"
            },
            {
              "internalType": "uint256",
              "name": "nonce",
              "type": "uint256"
            },
            {
              "internalType": "uint256",
              "name": "block",
              "type": "uint256"
            }
          ],
          "internalType": "struct BridgeAssistGenericUpgradeable.Transaction[]",
          "name": "transactions_",
          "type": "tuple[]"
        }
      ],
      "stateMutability": "view",
      "type": "function"
    },
    {
      "inputs": [
        {
          "internalType": "bytes32",
          "name": "role",
          "type": "bytes32"
        },
        {
          "internalType": "address",
          "name": "account",
          "type": "address"
        }
      ],
      "name": "grantRole",
      "outputs": [],
      "stateMutability": "nonpayable",
      "type": "function"
    },
    {
      "inputs": [
        {
          "internalType": "bytes32",
          "name": "role",
          "type": "bytes32"
        },
        {
          "internalType": "address",
          "name": "account",
          "type": "address"
        }
      ],
      "name": "hasRole",
      "outputs": [
        {
          "internalType": "bool",
          "name": "",
          "type": "bool"
        }
      ],
      "stateMutability": "view",
      "type": "function"
    },
    {
      "inputs": [
        {
          "internalType": "address",
          "name": "token_",
          "type": "address"
        },
        {
          "internalType": "uint256",
          "name": "limitPerSend_",
          "type": "uint256"
        },
        {
          "internalType": "address",
          "name": "feeWallet_",
          "type": "address"
        },
        {
          "internalType": "uint256",
          "name": "feeSend_",
          "type": "uint256"
        },
        {
          "internalType": "uint256",
          "name": "feeFulfill_",
          "type": "uint256"
        },
        {
          "internalType": "address",
          "name": "owner",
          "type": "address"
        },
        {
          "internalType": "address[]",
          "name": "relayers_",
          "type": "address[]"
        },
        {
          "internalType": "uint256",
          "name": "relayerConsensusThreshold_",
          "type": "uint256"
        }
      ],
      "name": "initialize",
      "outputs": [],
      "stateMutability": "nonpayable",
      "type": "function"
    },
    {
      "inputs": [
        {
          "internalType": "string",
          "name": "chain",
          "type": "string"
        }
      ],
      "name": "isSupportedChain",
      "outputs": [
        {
          "internalType": "bool",
          "name": "",
          "type": "bool"
        }
      ],
      "stateMutability": "view",
      "type": "function"
    },
    {
      "inputs": [],
      "name": "limitPerSend",
      "outputs": [
        {
          "internalType": "uint256",
          "name": "",
          "type": "uint256"
        }
      ],
      "stateMutability": "view",
      "type": "function"
    },
    {
      "inputs": [],
      "name": "nonce",
      "outputs": [
        {
          "internalType": "uint256",
          "name": "",
          "type": "uint256"
        }
      ],
      "stateMutability": "view",
      "type": "function"
    },
    {
      "inputs": [],
      "name": "pause",
      "outputs": [],
      "stateMutability": "nonpayable",
      "type": "function"
    },
    {
      "inputs": [],
      "name": "paused",
      "outputs": [
        {
          "internalType": "bool",
          "name": "",
          "type": "bool"
        }
      ],
      "stateMutability": "view",
      "type": "function"
    },
    {
      "inputs": [],
      "name": "relayerConsensusThreshold",
      "outputs": [
        {
          "internalType": "uint256",
          "name": "",
          "type": "uint256"
        }
      ],
      "stateMutability": "view",
      "type": "function"
    },
    {
      "inputs": [
        {
          "internalType": "uint256",
          "name": "",
          "type": "uint256"
        }
      ],
      "name": "relayers",
      "outputs": [
        {
          "internalType": "address",
          "name": "",
          "type": "address"
        }
      ],
      "stateMutability": "view",
      "type": "function"
    },
    {
      "inputs": [],
      "name": "relayersLength",
      "outputs": [
        {
          "internalType": "uint256",
          "name": "",
          "type": "uint256"
        }
      ],
      "stateMutability": "view",
      "type": "function"
    },
    {
      "inputs": [
        {
          "internalType": "string[]",
          "name": "chains",
          "type": "string[]"
        }
      ],
      "name": "removeChains",
      "outputs": [],
      "stateMutability": "nonpayable",
      "type": "function"
    },
    {
      "inputs": [
        {
          "internalType": "bytes32",
          "name": "role",
          "type": "bytes32"
        },
        {
          "internalType": "address",
          "name": "account",
          "type": "address"
        }
      ],
      "name": "renounceRole",
      "outputs": [],
      "stateMutability": "nonpayable",
      "type": "function"
    },
    {
      "inputs": [
        {
          "internalType": "bytes32",
          "name": "role",
          "type": "bytes32"
        },
        {
          "internalType": "address",
          "name": "account",
          "type": "address"
        }
      ],
      "name": "revokeRole",
      "outputs": [],
      "stateMutability": "nonpayable",
      "type": "function"
    },
    {
      "inputs": [
        {
          "internalType": "uint256",
          "name": "amount",
          "type": "uint256"
        },
        {
          "internalType": "string",
          "name": "toUser",
          "type": "string"
        },
        {
          "internalType": "string",
          "name": "toChain",
          "type": "string"
        }
      ],
      "name": "send",
      "outputs": [],
      "stateMutability": "nonpayable",
      "type": "function"
    },
    {
      "inputs": [
        {
          "internalType": "uint256",
          "name": "feeSend_",
          "type": "uint256"
        },
        {
          "internalType": "uint256",
          "name": "feeFulfill_",
          "type": "uint256"
        }
      ],
      "name": "setFee",
      "outputs": [],
      "stateMutability": "nonpayable",
      "type": "function"
    },
    {
      "inputs": [
        {
          "internalType": "address",
          "name": "feeWallet_",
          "type": "address"
        }
      ],
      "name": "setFeeWallet",
      "outputs": [],
      "stateMutability": "nonpayable",
      "type": "function"
    },
    {
      "inputs": [
        {
          "internalType": "uint256",
          "name": "limitPerSend_",
          "type": "uint256"
        }
      ],
      "name": "setLimitPerSend",
      "outputs": [],
      "stateMutability": "nonpayable",
      "type": "function"
    },
    {
      "inputs": [
        {
          "internalType": "address[]",
          "name": "relayers_",
          "type": "address[]"
        },
        {
          "internalType": "uint256",
          "name": "relayerConsensusThreshold_",
          "type": "uint256"
        }
      ],
      "name": "setRelayers",
      "outputs": [],
      "stateMutability": "nonpayable",
      "type": "function"
    },
    {
      "inputs": [],
      "name": "supportedChainList",
      "outputs": [
        {
          "internalType": "bytes32[]",
          "name": "",
          "type": "bytes32[]"
        }
      ],
      "stateMutability": "view",
      "type": "function"
    },
    {
      "inputs": [
        {
          "internalType": "bytes4",
          "name": "interfaceId",
          "type": "bytes4"
        }
      ],
      "name": "supportsInterface",
      "outputs": [
        {
          "internalType": "bool",
          "name": "",
          "type": "bool"
        }
      ],
      "stateMutability": "view",
      "type": "function"
    },
    {
      "inputs": [
        {
          "internalType": "address",
          "name": "",
          "type": "address"
        },
        {
          "internalType": "uint256",
          "name": "",
          "type": "uint256"
        }
      ],
      "name": "transactions",
      "outputs": [
        {
          "internalType": "uint256",
          "name": "amount",
          "type": "uint256"
        },
        {
          "internalType": "uint256",
          "name": "timestamp",
          "type": "uint256"
        },
        {
          "internalType": "address",
          "name": "fromUser",
          "type": "address"
        },
        {
          "internalType": "string",
          "name": "toUser",
          "type": "string"
        },
        {
          "internalType": "string",
          "name": "fromChain",
          "type": "string"
        },
        {
          "internalType": "string",
          "name": "toChain",
          "type": "string"
        },
        {
          "internalType": "uint256",
          "name": "nonce",
          "type": "uint256"
        },
        {
          "internalType": "uint256",
          "name": "block",
          "type": "uint256"
        }
      ],
      "stateMutability": "view",
      "type": "function"
    },
    {
      "inputs": [],
      "name": "unpause",
      "outputs": [],
      "stateMutability": "nonpayable",
      "type": "function"
    },
    {
      "inputs": [
        {
          "internalType": "contract IERC20Upgradeable",
          "name": "token_",
          "type": "address"
        },
        {
          "internalType": "address",
          "name": "to",
          "type": "address"
        },
        {
          "internalType": "uint256",
          "name": "amount",
          "type": "uint256"
        }
      ],
      "name": "withdraw",
      "outputs": [],
      "stateMutability": "nonpayable",
      "type": "function"
    }
  ],
  "transactionHash": "0x5b19482a7ccf185766734dc107999aed62775e93db27470a94abe37d9b150251",
  "args": [],
  "numDeployments": 1,
  "solcInputHash": "4002e5e254812c79856d5c5172ff683d",
  "bytecode": "0x60a06040523480156200001157600080fd5b5062000028466200006760201b620024811760201c565b6040516020016200003a9190620002b6565b6040516020818303038152906040526200005490620002f7565b608052620000616200010b565b62000335565b606060006200008183620001cc60201b620025131760201c565b60010190506000816001600160401b03811115620000a357620000a36200031f565b6040519080825280601f01601f191660200182016040528015620000ce576020820181803683370190505b5090508181016020015b600019016f181899199a1a9b1b9c1cb0b131b232b360811b600a86061a8153600a8504945084620000d857509392505050565b600054610100900460ff1615620001785760405162461bcd60e51b815260206004820152602760248201527f496e697469616c697a61626c653a20636f6e747261637420697320696e697469604482015266616c697a696e6760c81b606482015260840160405180910390fd5b60005460ff90811614620001ca576000805460ff191660ff9081179091556040519081527f7f26b83ff96e1f2b6a682f133852f6798a09c465da95921460cefb38474024989060200160405180910390a15b565b6000807a184f03e93ff9f4daa797ed6e38ed64bf6a1f010000000000000000831062000216577a184f03e93ff9f4daa797ed6e38ed64bf6a1f010000000000000000830492506040015b6d04ee2d6d415b85acef8100000000831062000243576d04ee2d6d415b85acef8100000000830492506020015b662386f26fc1000083106200026257662386f26fc10000830492506010015b6305f5e10083106200027b576305f5e100830492506008015b61271083106200029057612710830492506004015b60648310620002a3576064830492506002015b600a8310620002b0576001015b92915050565b6332bb369760e11b81526000825160005b81811015620002e65760208186018101516004868401015201620002c7565b506000920160040191825250919050565b8051602080830151919081101562000319576000198160200360031b1b821691505b50919050565b634e487b7160e01b600052604160045260246000fd5b608051614b27620003586000396000818161051b01526115ca0152614b276000f3fe608060405234801561001057600080fd5b506004361061027e5760003560e01c806397901c5a1161015c578063cfae7307116100ce578063e029159211610087578063e0291592146105c4578063ec87621c146105d7578063ef925399146105ec578063f25f4b56146105ff578063f7b2bf6814610612578063fe62c28b1461066557600080fd5b8063cfae73071461056d578063d3649d6c14610577578063d547741f14610580578063d73792a914610593578063d9caed121461059c578063e026faa7146105af57600080fd5b8063a427b24211610120578063a427b24214610503578063ac37b22614610516578063ae7cabbd1461053d578063affed0e014610546578063b049cec714610550578063b46c31a41461056357600080fd5b806397901c5a146104ac578063984bd4b2146104cd5780639a48e7f9146104e05780639debb3bd146104f3578063a217fddf146104fb57600080fd5b806341655326116101f55780637233a666116101b95780637233a6661461042357806382bfefc8146104385780638456cb591461046357806384b0196e1461046b57806390d49b9d1461048657806391d148541461049957600080fd5b806341655326146103ab57806352f7c988146103d25780635c975abb146103e55780635f282ba4146103f0578063680d82ea1461041057600080fd5b8063248a9ca311610247578063248a9ca31461030f5780632aaf5ed5146103405780632cf26701146103535780632f2ff15d1461037d57806336568abe146103905780633f4ba83a146103a357600080fd5b8062f54e801461028357806301ffc9a71461029857806314538128146102c0578063179ff4b2146102e75780631e12ef29146102fc575b600080fd5b610296610291366004613ba7565b61066f565b005b6102ab6102a6366004613c12565b6108bb565b60405190151581526020015b60405180910390f35b6102d36102ce366004613c51565b6108f2565b6040516102b7989796959493929190613ccd565b6102ef610af6565b6040516102b79190613d3f565b61029661030a366004613d8c565b610b59565b61033261031d366004613dcd565b60009081526065602052604090206001015490565b6040519081526020016102b7565b61029661034e366004613de6565b610c71565b610332610361366004613e31565b6001600160a01b03166000908152610104602052604090205490565b61029661038b366004613e4e565b610ef5565b61029661039e366004613e4e565b610f1f565b610296610f9d565b6103327fcb87858191633bd77793d261daabf61ecc1356b8074c6678235852edf88a10dc81565b6102966103e0366004613e7e565b610fc8565b60975460ff166102ab565b6104036103fe366004613ea0565b611109565b6040516102b79190613ed5565b61029661041e366004613ffe565b6114a2565b61042b6115c3565b6040516102b79190614110565b60fd5461044b906001600160a01b031681565b6040516001600160a01b0390911681526020016102b7565b6102966115f3565b61047361161b565b6040516102b79796959493929190614123565b610296610494366004613e31565b6116b9565b6102ab6104a7366004613e4e565b6117c4565b6103326104ba366004613dcd565b6101066020526000908152604090205481565b6102966104db3660046141b9565b6117ef565b61044b6104ee366004613dcd565b611c2e565b610332606481565b610332600081565b610296610511366004613dcd565b611c59565b6103327f000000000000000000000000000000000000000000000000000000000000000081565b61010954610332565b6103326101035481565b6102ab61055e36600461426a565b611cf7565b6103326101015481565b6103326101005481565b61033260ff5481565b61029661058e366004613e4e565b611d16565b61033261271081565b6102966105aa36600461429f565b611d3b565b6105b7611de6565b6040516102b791906142e0565b6102966105d2366004614387565b611df3565b610332600080516020614ad283398151915281565b6104036105fa366004613e31565b612215565b60fe5461044b906001600160a01b031681565b6103326106203660046143ea565b82516020818501810180516101058252928201958201959095209190945282518084018501805192815290850193850193909320925291526000908152604090205481565b6103326101025481565b600080516020614ad2833981519152610687816125eb565b8382146106c75760405162461bcd60e51b8152602060048201526009602482015268189859081a5b9c1d5d60ba1b60448201526064015b60405180910390fd5b60005b848110156108b35761070b8686838181106106e7576106e7614456565b90506020028101906106f9919061446c565b610702916144b2565b610107906125f5565b6107575760405162461bcd60e51b815260206004820152601c60248201527f436861696e20697320616c726561647920696e20746865206c6973740000000060448201526064016106be565b600086868381811061076b5761076b614456565b905060200281019061077d919061446c565b610786916144b2565b9050600085858481811061079c5761079c614456565b90506020020135600a6107af91906145ca565b600083815261010660205260409020549091501561082a576000828152610106602052604090205481146108255760405162461bcd60e51b815260206004820152601f60248201527f63616e6e6f74206d6f64696679207468652065786368616e676520726174650060448201526064016106be565b61083d565b6000828152610106602052604090208190555b87878481811061084f5761084f614456565b9050602002810190610861919061446c565b60405161086f9291906145d6565b604051908190038120828252907f8398b0e4d6d15e6038c42e15bf0f0f5466dc36dfd49979c0599bc2eb0fb583029060200160405180910390a250506001016106ca565b505050505050565b60006001600160e01b03198216637965db0b60e01b14806108ec57506301ffc9a760e01b6001600160e01b03198316145b92915050565b610104602052816000526040600020818154811061090f57600080fd5b600091825260209091206008909102018054600182015460028301546003840180549396509194506001600160a01b0316929161094b906145e6565b80601f0160208091040260200160405190810160405280929190818152602001828054610977906145e6565b80156109c45780601f10610999576101008083540402835291602001916109c4565b820191906000526020600020905b8154815290600101906020018083116109a757829003601f168201915b5050505050908060040180546109d9906145e6565b80601f0160208091040260200160405190810160405280929190818152602001828054610a05906145e6565b8015610a525780601f10610a2757610100808354040283529160200191610a52565b820191906000526020600020905b815481529060010190602001808311610a3557829003601f168201915b505050505090806005018054610a67906145e6565b80601f0160208091040260200160405190810160405280929190818152602001828054610a93906145e6565b8015610ae05780601f10610ab557610100808354040283529160200191610ae0565b820191906000526020600020905b815481529060010190602001808311610ac357829003601f168201915b5050505050908060060154908060070154905088565b6060610109805480602002602001604051908101604052809291908181526020018280548015610b4f57602002820191906000526020600020905b81546001600160a01b03168152600190910190602001808311610b31575b5050505050905090565b600080516020614ad2833981519152610b71816125eb565b60005b82811015610c6b57610bb5848483818110610b9157610b91614456565b9050602002810190610ba3919061446c565b610bac916144b2565b61010790612601565b610c015760405162461bcd60e51b815260206004820152601c60248201527f436861696e206973206e6f7420696e20746865206c697374207965740000000060448201526064016106be565b838382818110610c1357610c13614456565b9050602002810190610c25919061446c565b604051610c339291906145d6565b604051908190038120907f9872686700ce3c111f0231d65c591f43d9592b5ef96649b3f7ee98c4133dbc6290600090a2600101610b74565b50505050565b600080516020614ad2833981519152610c89816125eb565b6000839003610cc85760405162461bcd60e51b815260206004820152600b60248201526a4e6f2072656c617965727360a81b60448201526064016106be565b6064831115610d0d5760405162461bcd60e51b8152602060048201526011602482015270546f6f206d616e792072656c617965727360781b60448201526064016106be565b81600003610d465760405162461bcd60e51b81526020600482015260066024820152651816b7b316a760d11b60448201526064016106be565b82821115610d7f5760405162461bcd60e51b81526020600482015260066024820152652716b7b316a760d11b60448201526064016106be565b60005b83811015610eaf5760005b84811015610e4a5780821480610e015750858582818110610db057610db0614456565b9050602002016020810190610dc59190613e31565b6001600160a01b0316868684818110610de057610de0614456565b9050602002016020810190610df59190613e31565b6001600160a01b031614155b610e425760405162461bcd60e51b81526020600482015260126024820152714475706c69636174652072656c617965727360701b60448201526064016106be565b600101610d8d565b50848482818110610e5d57610e5d614456565b9050602002016020810190610e729190613e31565b6001600160a01b03167fb7041340e0c2a075059bf0488a71c767724be15dae8e737f8460007325e8d85760405160405180910390a2600101610d82565b50610ebd6101098585613a9a565b5061010282905560405182907f9b9e4f688e164fdef0488fb51151fe99d23c096317060cd0a46b90e50efff9c190600090a250505050565b600082815260656020526040902060010154610f10816125eb565b610f1a838361260d565b505050565b6001600160a01b0381163314610f8f5760405162461bcd60e51b815260206004820152602f60248201527f416363657373436f6e74726f6c3a2063616e206f6e6c792072656e6f756e636560448201526e103937b632b9903337b91039b2b63360891b60648201526084016106be565b610f998282612693565b5050565b610fa56126fa565b600080516020614ad2833981519152610fbd816125eb565b610fc5612745565b50565b600080516020614ad2833981519152610fe0816125eb565b8261010054141580610ff55750816101015414155b6110395760405162461bcd60e51b8152602060048201526015602482015274466565206e756d657261746f72207265706561747360581b60448201526064016106be565b612710831061107c5760405162461bcd60e51b815260206004820152600f60248201526e08ccaca40d2e640e8dede40d0d2ced608b1b60448201526064016106be565b61271082106110bf5760405162461bcd60e51b815260206004820152600f60248201526e08ccaca40d2e640e8dede40d0d2ced608b1b60448201526064016106be565b61010083905561010182905560408051848152602081018490527f74dbbbe280ef27b79a8a0c449d5ae2ba7a31849103241d0f98df70bbc9d03e37910160405180910390a1505050565b6001600160a01b038316600090815261010460205260409020546060906111308385614620565b8110156111725760405162461bcd60e51b815260206004820152601060248201526f189859081bd9999cd95d0bdb1a5b5a5d60821b60448201526064016106be565b826001600160401b0381111561118a5761118a613fb8565b60405190808252806020026020018201604052801561120c57816020015b6111f9604051806101000160405280600081526020016000815260200160006001600160a01b0316815260200160608152602001606081526020016060815260200160008152602001600081525090565b8152602001906001900390816111a85790505b50915060005b83811015611499576001600160a01b03861660009081526101046020526040902061123d8287614620565b8154811061124d5761124d614456565b90600052602060002090600802016040518061010001604052908160008201548152602001600182015481526020016002820160009054906101000a90046001600160a01b03166001600160a01b03166001600160a01b031681526020016003820180546112ba906145e6565b80601f01602080910402602001604051908101604052809291908181526020018280546112e6906145e6565b80156113335780601f1061130857610100808354040283529160200191611333565b820191906000526020600020905b81548152906001019060200180831161131657829003601f168201915b5050505050815260200160048201805461134c906145e6565b80601f0160208091040260200160405190810160405280929190818152602001828054611378906145e6565b80156113c55780601f1061139a576101008083540402835291602001916113c5565b820191906000526020600020905b8154815290600101906020018083116113a857829003601f168201915b505050505081526020016005820180546113de906145e6565b80601f016020809104026020016040519081016040528092919081815260200182805461140a906145e6565b80156114575780601f1061142c57610100808354040283529160200191611457565b820191906000526020600020905b81548152906001019060200180831161143a57829003601f168201915b505050505081526020016006820154815260200160078201548152505083828151811061148657611486614456565b6020908102919091010152600101611212565b50509392505050565b600054610100900460ff16158080156114c25750600054600160ff909116105b806114dc5750303b1580156114dc575060005460ff166001145b61153f5760405162461bcd60e51b815260206004820152602e60248201527f496e697469616c697a61626c653a20636f6e747261637420697320616c72656160448201526d191e481a5b9a5d1a585b1a5e995960921b60648201526084016106be565b6000805460ff191660011790558015611562576000805461ff0019166101001790555b6115728989898989898989612797565b80156115b8576000805461ff0019169055604051600181527f7f26b83ff96e1f2b6a682f133852f6798a09c465da95921460cefb38474024989060200160405180910390a15b505050505050505050565b60606115ee7f0000000000000000000000000000000000000000000000000000000000000000612b87565b905090565b6115fb612bf2565b600080516020614ad2833981519152611613816125eb565b610fc5612c38565b60006060806000806000606060c9546000801b14801561163b575060ca54155b61167f5760405162461bcd60e51b81526020600482015260156024820152741152540dcc4c8e88155b9a5b9a5d1a585b1a5e9959605a1b60448201526064016106be565b611687612c75565b61168f612cfe565b60408051600080825260208201909252600f60f81b9b939a50919850469750309650945092509050565b600080516020614ad28339815191526116d1816125eb565b60fe546001600160a01b038084169116036117235760405162461bcd60e51b81526020600482015260126024820152714665652077616c6c6574207265706561747360701b60448201526064016106be565b6001600160a01b0382166117795760405162461bcd60e51b815260206004820152601a60248201527f4665652077616c6c6574206973207a65726f206164647265737300000000000060448201526064016106be565b60fe80546001600160a01b0319166001600160a01b0384169081179091556040517f0439162378682c6392215882cf21e973f49063ed3530a31d763835a2e9f6d17e90600090a25050565b60009182526065602090815260408084206001600160a01b0393909316845291905290205460ff1690565b6117f7612bf2565b61180761055e606085018561446c565b6118535760405162461bcd60e51b815260206004820152601760248201527f4e6f7420737570706f727465642066726f6d436861696e00000000000000000060448201526064016106be565b610105611863606085018561446c565b6040516118719291906145d6565b908152602001604051809103902083806020019061188f919061446c565b60405161189d9291906145d6565b9081526020016040518091039020600084608001358152602001908152602001600020546000146119105760405162461bcd60e51b815260206004820152601b60248201527f5369676e617475726520616c72656164792066756c66696c6c6564000000000060448201526064016106be565b61010954811461195a5760405162461bcd60e51b8152602060048201526015602482015274084c2c840e6d2cedcc2e8eae4cae640d8cadccee8d605b1b60448201526064016106be565b600061196d61196885614633565b612d0d565b90506000805b83811015611a5f5784848281811061198d5761198d614456565b905060200281019061199f919061446c565b90506000036119b057600101611973565b61010981815481106119c4576119c4614456565b6000918252602090912001546001600160a01b0316611a06848787858181106119ef576119ef614456565b9050602002810190611a01919061446c565b612df4565b6001600160a01b031614611a5357611a1d81612481565b604051602001611a2d91906146e3565b60408051601f198184030181529082905262461bcd60e51b82526106be91600401614110565b60019182019101611973565b5061010254811015611aa95760405162461bcd60e51b81526020600482015260136024820152724e6f7420656e6f7567682072656c617965727360681b60448201526064016106be565b43610105611aba606088018861446c565b604051611ac89291906145d6565b9081526020016040518091039020868060200190611ae6919061446c565b604051611af49291906145d6565b908152604080516020928190038301902060808901356000908152925281209190915561010681611b28606089018961446c565b611b31916144b2565b815260208101919091526040016000908120549150611b51828835614721565b905060006127106101015483611b679190614721565b611b71919061474e565b9050611b836060890160408a01613e31565b6001600160a01b0316611b9960208a018a61446c565b604051611ba79291906145d6565b6040519081900390207f1a82954c00ba4231b18dbc7d7d5187028cfc140ac6efedeeb60397b8710a9d93611bde60608c018c61446c565b611be66115c3565b611bf08789614762565b89604051611c0295949392919061479e565b60405180910390a3611c24611c1d60608a0160408b01613e31565b8383612e3e565b5050505050505050565b6101098181548110611c3f57600080fd5b6000918252602090912001546001600160a01b0316905081565b600080516020614ad2833981519152611c71816125eb565b8160ff5403611cbb5760405162461bcd60e51b81526020600482015260166024820152754c696d6974207065722073656e64207265706561747360501b60448201526064016106be565b60ff8290556040518281527fafed7b515412d2f3cb916d7ae1be64019a06ed7205d98e354ea26c4ab928c2be9060200160405180910390a15050565b6000611d0f611d0683856144b2565b61010790612e7c565b9392505050565b600082815260656020526040902060010154611d31816125eb565b610f1a8383612693565b600080516020614ad2833981519152611d53816125eb565b6001600160a01b038316611d9c5760405162461bcd60e51b815260206004820152601060248201526f546f3a207a65726f206164647265737360801b60448201526064016106be565b81600003611ddb5760405162461bcd60e51b815260206004820152600c60248201526b416d6f756e743a207a65726f60a01b60448201526064016106be565b610c6b848484612e94565b60606115ee610107612ef7565b611dfb612bf2565b83600003611e385760405162461bcd60e51b815260206004820152600a6024820152690416d6f756e74203d20360b41b60448201526064016106be565b60ff54841115611e8a5760405162461bcd60e51b815260206004820152601960248201527f416d6f756e74206973206d6f7265207468616e206c696d69740000000000000060448201526064016106be565b8251600003611ed35760405162461bcd60e51b81526020600482015260156024820152744669656c6420746f5573657220697320656d70747960581b60448201526064016106be565b611edd8282611cf7565b611f225760405162461bcd60e51b815260206004820152601660248201527510da185a5b881a5cc81b9bdd081cdd5c1c1bdc9d195960521b60448201526064016106be565b600061010681611f3284866144b2565b81526020019081526020016000205490508085611f4f91906147d9565b15611fad5760405162461bcd60e51b815260206004820152602860248201527f416d6f756e74206973206e6f7420646976697369626c652062792065786368616044820152676e6765207261746560c01b60648201526084016106be565b612710611fba828761474e565b10156120085760405162461bcd60e51b815260206004820152601860248201527f616d6f756e74203c206665652064656e6f6d696e61746f72000000000000000060448201526064016106be565b600081612710610100548861201d9190614721565b612027919061474e565b612031919061474e565b33600090815261010460205260409081902081516101008101909252919250808361205c868b61474e565b6120669190614762565b8152426020820152336040820152606081018890526080016120866115c3565b815260200186868080601f016020809104026020016040519081016040528093929190818152602001838380828437600092018290525093855250506101038054602090940193929091506120da836147ed565b909155508152436020918201528254600180820185556000948552938290208351600890920201908155908201519281019290925560408101516002830180546001600160a01b0319166001600160a01b039092169190911790556060810151909190600382019061214c908261484c565b5060808201516004820190612161908261484c565b5060a08201516005820190612176908261484c565b5060c0820151816006015560e0820151816007015550508460405161219b919061490b565b60405180910390207f39ca9eb9de2c42145bdc9525fbfac365c3f8e2abdf97dd94e64ec1258365b9f7336121cd6115c3565b87876121d9878d614762565b886040516121ec96959493929190614927565b60405180910390a260fd546108b3906001600160a01b031633886122108686614721565b612f04565b6001600160a01b038116600090815261010460209081526040808320805482518185028101850190935280835260609492939192909184015b828210156124765760008481526020908190206040805161010081018252600886029092018054835260018101549383019390935260028301546001600160a01b0316908201526003820180549192916060840191906122ad906145e6565b80601f01602080910402602001604051908101604052809291908181526020018280546122d9906145e6565b80156123265780601f106122fb57610100808354040283529160200191612326565b820191906000526020600020905b81548152906001019060200180831161230957829003601f168201915b5050505050815260200160048201805461233f906145e6565b80601f016020809104026020016040519081016040528092919081815260200182805461236b906145e6565b80156123b85780601f1061238d576101008083540402835291602001916123b8565b820191906000526020600020905b81548152906001019060200180831161239b57829003601f168201915b505050505081526020016005820180546123d1906145e6565b80601f01602080910402602001604051908101604052809291908181526020018280546123fd906145e6565b801561244a5780601f1061241f5761010080835404028352916020019161244a565b820191906000526020600020905b81548152906001019060200180831161242d57829003601f168201915b50505050508152602001600682015481526020016007820154815250508152602001906001019061224e565b505050509050919050565b6060600061248e83612513565b60010190506000816001600160401b038111156124ad576124ad613fb8565b6040519080825280601f01601f1916602001820160405280156124d7576020820181803683370190505b5090508181016020015b600019016f181899199a1a9b1b9c1cb0b131b232b360811b600a86061a8153600a85049450846124e157509392505050565b60008072184f03e93ff9f4daa797ed6e38ed64bf6a1f0160401b83106125525772184f03e93ff9f4daa797ed6e38ed64bf6a1f0160401b830492506040015b6d04ee2d6d415b85acef8100000000831061257e576d04ee2d6d415b85acef8100000000830492506020015b662386f26fc10000831061259c57662386f26fc10000830492506010015b6305f5e10083106125b4576305f5e100830492506008015b61271083106125c857612710830492506004015b606483106125da576064830492506002015b600a83106108ec5760010192915050565b610fc58133613057565b6000611d0f838361308a565b6000611d0f83836130d9565b61261782826117c4565b610f995760008281526065602090815260408083206001600160a01b03851684529091529020805460ff1916600117905561264f3390565b6001600160a01b0316816001600160a01b0316837f2f8788117e7eff1d82e926ec794901d17c78024a50270940304540a733656f0d60405160405180910390a45050565b61269d82826117c4565b15610f995760008281526065602090815260408083206001600160a01b0385168085529252808320805460ff1916905551339285917ff6391f5c32d9c69d2a47ea670b442974b53935d1edc7fd64eb21e047a839171b9190a45050565b60975460ff166127435760405162461bcd60e51b815260206004820152601460248201527314185d5cd8589b194e881b9bdd081c185d5cd95960621b60448201526064016106be565b565b61274d6126fa565b6097805460ff191690557f5db9ee0a495bf2e6ff9c91a7834c1ba4fdd244a5e8aa4e537bd38aeae4b073aa335b6040516001600160a01b03909116815260200160405180910390a1565b6001600160a01b0388166127e55760405162461bcd60e51b8152602060048201526015602482015274546f6b656e206973207a65726f206164647265737360581b60448201526064016106be565b6001600160a01b03861661283b5760405162461bcd60e51b815260206004820152601a60248201527f4665652077616c6c6574206973207a65726f206164647265737300000000000060448201526064016106be565b61271085106128835760405162461bcd60e51b815260206004820152601460248201527308ccaca40e6cadcc840d2e640e8dede40d0d2ced60631b60448201526064016106be565b61271084106128d45760405162461bcd60e51b815260206004820152601760248201527f4665652066756c66696c6c20697320746f6f206869676800000000000000000060448201526064016106be565b6001600160a01b0383166129225760405162461bcd60e51b81526020600482015260156024820152744f776e6572206973207a65726f206164647265737360581b60448201526064016106be565b81516000036129615760405162461bcd60e51b815260206004820152600b60248201526a4e6f2072656c617965727360a81b60448201526064016106be565b6064825111156129a75760405162461bcd60e51b8152602060048201526011602482015270546f6f206d616e792072656c617965727360781b60448201526064016106be565b806000036129e05760405162461bcd60e51b81526020600482015260066024820152651816b7b316a760d11b60448201526064016106be565b8151811115612a1a5760405162461bcd60e51b81526020600482015260066024820152652716b7b316a760d11b60448201526064016106be565b60005b8251811015612ad65760005b8351811015612acd5780821480612a845750838181518110612a4d57612a4d614456565b60200260200101516001600160a01b0316848381518110612a7057612a70614456565b60200260200101516001600160a01b031614155b612ac55760405162461bcd60e51b81526020600482015260126024820152714475706c69636174652072656c617965727360701b60448201526064016106be565b600101612a29565b50600101612a1d565b50612b206040518060400160405280600c81526020016b109c9a5919d9505cdcda5cdd60a21b815250604051806040016040528060038152602001620312e360ec1b8152506131cc565b60fd80546001600160a01b03808b166001600160a01b03199283161790925560ff89905560fe8054928916929091169190911790556101008590556101018490558151612b7590610109906020850190613af9565b50610102819055611c2460008461260d565b606060005b828160ff1660208110612ba157612ba1614456565b1a60f81b6001600160f81b03191615801590612bc0575060208160ff16105b15612bd75780612bcf81614974565b915050612b8c565b60405191506040820160405280825282602083015250919050565b60975460ff16156127435760405162461bcd60e51b815260206004820152601060248201526f14185d5cd8589b194e881c185d5cd95960821b60448201526064016106be565b612c40612bf2565b6097805460ff191660011790557f62e78cea01bee320cd4e420270b5ea74000d11b0c9f74754ebdbfc544b05a25861277a3390565b606060cb8054612c84906145e6565b80601f0160208091040260200160405190810160405280929190818152602001828054612cb0906145e6565b8015610b4f5780601f10612cd257610100808354040283529160200191610b4f565b820191906000526020600020905b815481529060010190602001808311612ce057509395945050505050565b606060cc8054612c84906145e6565b60006108ec7fcb87858191633bd77793d261daabf61ecc1356b8074c6678235852edf88a10dc83600001518460200151604051602001612d4d919061490b565b6040516020818303038152906040528051906020012085604001518660600151604051602001612d7d919061490b565b604051602081830303815290604052805190602001208760800151604051602001612dd996959493929190958652602086019490945260408501929092526001600160a01b03166060840152608083015260a082015260c00190565b604051602081830303815290604052805190602001206131fd565b6000612e368484848080601f01602080910402602001604051908101604052809392919081815260200183838082843760009201919091525061322a92505050565b949350505050565b60fd546001600160a01b0316612e5e8185612e598587614762565b612e94565b8115610c6b5760fe54610c6b9082906001600160a01b031684612e94565b60008181526001830160205260408120541515611d0f565b6040516001600160a01b038316602482015260448101829052610f1a90849063a9059cbb60e01b906064015b60408051601f198184030181529190526020810180516001600160e01b03166001600160e01b03199093169290921790915261324e565b60606000611d0f83613323565b6040516370a0823160e01b815230600482015284906000906001600160a01b038316906370a0823190602401602060405180830381865afa158015612f4d573d6000803e3d6000fd5b505050506040513d601f19601f82011682018060405250810190612f719190614993565b9050612f7f8286308761337f565b6040516370a0823160e01b81523060048201526000906001600160a01b038416906370a0823190602401602060405180830381865afa158015612fc6573d6000803e3d6000fd5b505050506040513d601f19601f82011682018060405250810190612fea9190614993565b905084612ff78383614762565b146130305760405162461bcd60e51b81526020600482015260096024820152683130b2103a37b5b2b760b91b60448201526064016106be565b505081156130505760fe546130509082906001600160a01b031684612e94565b5050505050565b61306182826117c4565b610f995761306e816133b7565b6130798360206133c9565b604051602001611a2d9291906149ac565b60008181526001830160205260408120546130d1575081546001818101845560008481526020808220909301849055845484825282860190935260409020919091556108ec565b5060006108ec565b600081815260018301602052604081205480156131c25760006130fd600183614762565b855490915060009061311190600190614762565b905081811461317657600086600001828154811061313157613131614456565b906000526020600020015490508087600001848154811061315457613154614456565b6000918252602080832090910192909255918252600188019052604090208390555b855486908061318757613187614a21565b6001900381819060005260206000200160009055905585600101600086815260200190815260200160002060009055600193505050506108ec565b60009150506108ec565b600054610100900460ff166131f35760405162461bcd60e51b81526004016106be90614a37565b610f998282613564565b60006108ec61320a6135b3565b8360405161190160f01b8152600281019290925260228201526042902090565b600080600061323985856135bd565b9150915061324681613602565b509392505050565b60006132a3826040518060400160405280602081526020017f5361666545524332303a206c6f772d6c6576656c2063616c6c206661696c6564815250856001600160a01b031661374c9092919063ffffffff16565b90508051600014806132c45750808060200190518101906132c49190614a82565b610f1a5760405162461bcd60e51b815260206004820152602a60248201527f5361666545524332303a204552433230206f7065726174696f6e20646964206e6044820152691bdd081cdd58d8d9595960b21b60648201526084016106be565b60608160000180548060200260200160405190810160405280929190818152602001828054801561337357602002820191906000526020600020905b81548152602001906001019080831161335f575b50505050509050919050565b6040516001600160a01b0380851660248301528316604482015260648101829052610c6b9085906323b872dd60e01b90608401612ec0565b60606108ec6001600160a01b03831660145b606060006133d8836002614721565b6133e3906002614620565b6001600160401b038111156133fa576133fa613fb8565b6040519080825280601f01601f191660200182016040528015613424576020820181803683370190505b509050600360fc1b8160008151811061343f5761343f614456565b60200101906001600160f81b031916908160001a905350600f60fb1b8160018151811061346e5761346e614456565b60200101906001600160f81b031916908160001a9053506000613492846002614721565b61349d906001614620565b90505b6001811115613515576f181899199a1a9b1b9c1cb0b131b232b360811b85600f16601081106134d1576134d1614456565b1a60f81b8282815181106134e7576134e7614456565b60200101906001600160f81b031916908160001a90535060049490941c9361350e81614aa4565b90506134a0565b508315611d0f5760405162461bcd60e51b815260206004820181905260248201527f537472696e67733a20686578206c656e67746820696e73756666696369656e7460448201526064016106be565b600054610100900460ff1661358b5760405162461bcd60e51b81526004016106be90614a37565b60cb613597838261484c565b5060cc6135a4828261484c565b5050600060c981905560ca5550565b60006115ee61375b565b60008082516041036135f35760208301516040840151606085015160001a6135e7878285856137cf565b945094505050506135fb565b506000905060025b9250929050565b600081600481111561361657613616614abb565b0361361e5750565b600181600481111561363257613632614abb565b0361367f5760405162461bcd60e51b815260206004820152601860248201527f45434453413a20696e76616c6964207369676e6174757265000000000000000060448201526064016106be565b600281600481111561369357613693614abb565b036136e05760405162461bcd60e51b815260206004820152601f60248201527f45434453413a20696e76616c6964207369676e6174757265206c656e6774680060448201526064016106be565b60038160048111156136f4576136f4614abb565b03610fc55760405162461bcd60e51b815260206004820152602260248201527f45434453413a20696e76616c6964207369676e6174757265202773272076616c604482015261756560f01b60648201526084016106be565b6060612e368484600085613893565b60007f8b73c3c69bb8fe3d512ecc4cf759cc79239f7b179b0ffacaa9a75d522b39400f61378661396e565b61378e6139cb565b60408051602081019490945283019190915260608201524660808201523060a082015260c00160405160208183030381529060405280519060200120905090565b6000807f7fffffffffffffffffffffffffffffff5d576e7357a4501ddfe92f46681b20a0831115613806575060009050600361388a565b6040805160008082526020820180845289905260ff881692820192909252606081018690526080810185905260019060a0016020604051602081039080840390855afa15801561385a573d6000803e3d6000fd5b5050604051601f1901519150506001600160a01b0381166138835760006001925092505061388a565b9150600090505b94509492505050565b6060824710156138f45760405162461bcd60e51b815260206004820152602660248201527f416464726573733a20696e73756666696369656e742062616c616e636520666f6044820152651c8818d85b1b60d21b60648201526084016106be565b600080866001600160a01b03168587604051613910919061490b565b60006040518083038185875af1925050503d806000811461394d576040519150601f19603f3d011682016040523d82523d6000602084013e613952565b606091505b5091509150613963878383876139fc565b979650505050505050565b600080613979612c75565b805190915015613990578051602090910120919050565b60c954801561399f5792915050565b7fc5d2460186f7233c927e7db2dcc703c0e500b653ca82273b7bfad8045d85a4709250505090565b5090565b6000806139d6612cfe565b8051909150156139ed578051602090910120919050565b60ca54801561399f5792915050565b60608315613a6b578251600003613a64576001600160a01b0385163b613a645760405162461bcd60e51b815260206004820152601d60248201527f416464726573733a2063616c6c20746f206e6f6e2d636f6e747261637400000060448201526064016106be565b5081612e36565b612e368383815115613a805781518083602001fd5b8060405162461bcd60e51b81526004016106be9190614110565b828054828255906000526020600020908101928215613aed579160200282015b82811115613aed5781546001600160a01b0319166001600160a01b03843516178255602090920191600190910190613aba565b506139c7929150613b4e565b828054828255906000526020600020908101928215613aed579160200282015b82811115613aed57825182546001600160a01b0319166001600160a01b03909116178255602090920191600190910190613b19565b5b808211156139c75760008155600101613b4f565b60008083601f840112613b7557600080fd5b5081356001600160401b03811115613b8c57600080fd5b6020830191508360208260051b85010111156135fb57600080fd5b60008060008060408587031215613bbd57600080fd5b84356001600160401b0380821115613bd457600080fd5b613be088838901613b63565b90965094506020870135915080821115613bf957600080fd5b50613c0687828801613b63565b95989497509550505050565b600060208284031215613c2457600080fd5b81356001600160e01b031981168114611d0f57600080fd5b6001600160a01b0381168114610fc557600080fd5b60008060408385031215613c6457600080fd5b8235613c6f81613c3c565b946020939093013593505050565b60005b83811015613c98578181015183820152602001613c80565b50506000910152565b60008151808452613cb9816020860160208601613c7d565b601f01601f19169290920160200192915050565b888152602081018890526001600160a01b038716604082015261010060608201819052600090613cff83820189613ca1565b90508281036080840152613d138188613ca1565b905082810360a0840152613d278187613ca1565b60c0840195909552505060e001529695505050505050565b6020808252825182820181905260009190848201906040850190845b81811015613d805783516001600160a01b031683529284019291840191600101613d5b565b50909695505050505050565b60008060208385031215613d9f57600080fd5b82356001600160401b03811115613db557600080fd5b613dc185828601613b63565b90969095509350505050565b600060208284031215613ddf57600080fd5b5035919050565b600080600060408486031215613dfb57600080fd5b83356001600160401b03811115613e1157600080fd5b613e1d86828701613b63565b909790965060209590950135949350505050565b600060208284031215613e4357600080fd5b8135611d0f81613c3c565b60008060408385031215613e6157600080fd5b823591506020830135613e7381613c3c565b809150509250929050565b60008060408385031215613e9157600080fd5b50508035926020909101359150565b600080600060608486031215613eb557600080fd5b8335613ec081613c3c565b95602085013595506040909401359392505050565b60006020808301818452808551808352604092508286019150828160051b87010184880160005b83811015613faa57888303603f190185528151805184528781015188850152868101516001600160a01b0381168886015261010090506060808301518282880152613f4983880182613ca1565b9250505060808083015186830382880152613f648382613ca1565b9250505060a08083015186830382880152613f7f8382613ca1565b60c0858101519089015260e09485015194909701939093525050509386019390860190600101613efc565b509098975050505050505050565b634e487b7160e01b600052604160045260246000fd5b604051601f8201601f191681016001600160401b0381118282101715613ff657613ff6613fb8565b604052919050565b600080600080600080600080610100898b03121561401b57600080fd5b883561402681613c3c565b9750602089810135975060408a013561403e81613c3c565b965060608a0135955060808a0135945060a08a013561405c81613c3c565b935060c08a01356001600160401b038082111561407857600080fd5b818c0191508c601f83011261408c57600080fd5b81358181111561409e5761409e613fb8565b8060051b91506140af848301613fce565b818152918301840191848101908f8411156140c957600080fd5b938501935b838510156140f357843592506140e383613c3c565b82825293850193908501906140ce565b80975050505050505060e089013590509295985092959890939650565b602081526000611d0f6020830184613ca1565b60ff60f81b881681526000602060e08184015261414360e084018a613ca1565b8381036040850152614155818a613ca1565b606085018990526001600160a01b038816608086015260a0850187905284810360c0860152855180825283870192509083019060005b818110156141a75783518352928401929184019160010161418b565b50909c9b505050505050505050505050565b6000806000604084860312156141ce57600080fd5b83356001600160401b03808211156141e557600080fd5b9085019060a082880312156141f957600080fd5b9093506020850135908082111561420f57600080fd5b5061421c86828701613b63565b9497909650939450505050565b60008083601f84011261423b57600080fd5b5081356001600160401b0381111561425257600080fd5b6020830191508360208285010111156135fb57600080fd5b6000806020838503121561427d57600080fd5b82356001600160401b0381111561429357600080fd5b613dc185828601614229565b6000806000606084860312156142b457600080fd5b83356142bf81613c3c565b925060208401356142cf81613c3c565b929592945050506040919091013590565b6020808252825182820181905260009190848201906040850190845b81811015613d80578351835292840192918401916001016142fc565b600082601f83011261432957600080fd5b81356001600160401b0381111561434257614342613fb8565b614355601f8201601f1916602001613fce565b81815284602083860101111561436a57600080fd5b816020850160208301376000918101602001919091529392505050565b6000806000806060858703121561439d57600080fd5b8435935060208501356001600160401b03808211156143bb57600080fd5b6143c788838901614318565b945060408701359150808211156143dd57600080fd5b50613c0687828801614229565b6000806000606084860312156143ff57600080fd5b83356001600160401b038082111561441657600080fd5b61442287838801614318565b9450602086013591508082111561443857600080fd5b5061444586828701614318565b925050604084013590509250925092565b634e487b7160e01b600052603260045260246000fd5b6000808335601e1984360301811261448357600080fd5b8301803591506001600160401b0382111561449d57600080fd5b6020019150368190038213156135fb57600080fd5b803560208310156108ec57600019602084900360031b1b1692915050565b634e487b7160e01b600052601160045260246000fd5b600181815b80851115614521578160001904821115614507576145076144d0565b8085161561451457918102915b93841c93908002906144eb565b509250929050565b600082614538575060016108ec565b81614545575060006108ec565b816001811461455b576002811461456557614581565b60019150506108ec565b60ff841115614576576145766144d0565b50506001821b6108ec565b5060208310610133831016604e8410600b84101617156145a4575081810a6108ec565b6145ae83836144e6565b80600019048211156145c2576145c26144d0565b029392505050565b6000611d0f8383614529565b8183823760009101908152919050565b600181811c908216806145fa57607f821691505b60208210810361461a57634e487b7160e01b600052602260045260246000fd5b50919050565b808201808211156108ec576108ec6144d0565b600060a0823603121561464557600080fd5b60405160a081016001600160401b03828210818311171561466857614668613fb8565b8160405284358352602085013591508082111561468457600080fd5b61469036838701614318565b6020840152604085013591506146a582613c3c565b81604084015260608501359150808211156146bf57600080fd5b506146cc36828601614318565b606083015250608092830135928101929092525090565b75084c2c840e6d2cedcc2e8eae4ca40c2e840d2dcc8caf60531b815260008251614714816016850160208701613c7d565b9190910160160192915050565b80820281158282048414176108ec576108ec6144d0565b634e487b7160e01b600052601260045260246000fd5b60008261475d5761475d614738565b500490565b818103818111156108ec576108ec6144d0565b81835281816020850137506000828201602090810191909152601f909101601f19169091010190565b6080815260006147b2608083018789614775565b82810360208401526147c48187613ca1565b60408401959095525050606001529392505050565b6000826147e8576147e8614738565b500690565b6000600182016147ff576147ff6144d0565b5060010190565b601f821115610f1a57600081815260208120601f850160051c8101602086101561482d5750805b601f850160051c820191505b818110156108b357828155600101614839565b81516001600160401b0381111561486557614865613fb8565b6148798161487384546145e6565b84614806565b602080601f8311600181146148ae57600084156148965750858301515b600019600386901b1c1916600185901b1785556108b3565b600085815260208120601f198616915b828110156148dd578886015182559484019460019091019084016148be565b50858210156148fb5787850151600019600388901b60f8161c191681555b5050505050600190811b01905550565b6000825161491d818460208701613c7d565b9190910192915050565b6001600160a01b038716815260a06020820181905260009061494b90830188613ca1565b828103604084015261495e818789614775565b6060840195909552505060800152949350505050565b600060ff821660ff810361498a5761498a6144d0565b60010192915050565b6000602082840312156149a557600080fd5b5051919050565b7f416363657373436f6e74726f6c3a206163636f756e74200000000000000000008152600083516149e4816017850160208801613c7d565b7001034b99036b4b9b9b4b733903937b6329607d1b6017918401918201528351614a15816028840160208801613c7d565b01602801949350505050565b634e487b7160e01b600052603160045260246000fd5b6020808252602b908201527f496e697469616c697a61626c653a20636f6e7472616374206973206e6f74206960408201526a6e697469616c697a696e6760a81b606082015260800190565b600060208284031215614a9457600080fd5b81518015158114611d0f57600080fd5b600081614ab357614ab36144d0565b506000190190565b634e487b7160e01b600052602160045260246000fdfe241ecf16d79d0f8dbfb92cbc07fe17840425976cf0667f022fe9877caa831b08a26469706673582212200f031a903292e8f4609707558f043bfe34576bb6e939afa8c5be4e65239322b264736f6c63430008120033",
  "devdoc": {
    "author": "gotbit",
    "details": "Contract for sending tokens between chains assisted by a relayer, supporting fee on send/fulfill, supporting multiple chains including non-EVM blockchains, with a configurable limit per send and exchange rate between chains.",
    "events": {
      "EIP712DomainChanged()": {
        "details": "MAY be emitted to signal that the domain could have changed."
      },
      "Initialized(uint8)": {
        "details": "Triggered when the contract has been initialized or reinitialized."
      },
      "Paused(address)": {
        "details": "Emitted when the pause is triggered by `account`."
      },
      "RoleAdminChanged(bytes32,bytes32,bytes32)": {
        "details": "Emitted when `newAdminRole` is set as ``role``'s admin role, replacing `previousAdminRole` `DEFAULT_ADMIN_ROLE` is the starting admin for all roles, despite {RoleAdminChanged} not being emitted signaling this. _Available since v3.1._"
      },
      "RoleGranted(bytes32,address,address)": {
        "details": "Emitted when `account` is granted `role`. `sender` is the account that originated the contract call, an admin role bearer except when using {AccessControl-_setupRole}."
      },
      "RoleRevoked(bytes32,address,address)": {
        "details": "Emitted when `account` is revoked `role`. `sender` is the account that originated the contract call:   - if using `revokeRole`, it is the admin role bearer   - if using `renounceRole`, it is the role bearer (i.e. `account`)"
      },
      "Unpaused(address)": {
        "details": "Emitted when the pause is lifted by `account`."
      }
    },
    "kind": "dev",
    "methods": {
      "CURRENT_CHAIN()": {
        "details": "Returns the current chain name as a string.",
        "returns": {
          "_0": "name of the current chain"
        }
      },
      "addChains(string[],uint256[])": {
        "details": "add chains to the whitelist",
        "params": {
          "chains": "chains to add",
          "exchangeRatesFromPow": "exchange rates for `chains` as a power of 10.     exchange rate is a multiplier that fixes the difference     between decimals on different chains"
        }
      },
      "eip712Domain()": {
        "details": "See {EIP-5267}. _Available since v4.9._"
      },
      "fulfill((uint256,string,address,string,uint256),bytes[])": {
        "details": "fulfills a bridge transaction from another chain",
        "params": {
          "signatures": "signatures for `transaction` signed by `relayers` where `signatures[i]` is either a signature by `relayers[i]` or an empty array",
          "transaction": "bridge transaction to fulfill"
        }
      },
      "getRelayers()": {
        "returns": {
          "_0": "list of relayers"
        }
      },
      "getRoleAdmin(bytes32)": {
        "details": "Returns the admin role that controls `role`. See {grantRole} and {revokeRole}. To change a role's admin, use {_setRoleAdmin}."
      },
      "getUserTransactions(address)": {
        "details": "returns a list of bridge transactions sent by `user`   from the current chain",
        "params": {
          "user": "sender address"
        },
        "returns": {
          "_0": "list of transactions"
        }
      },
      "getUserTransactionsAmount(address)": {
        "details": "returns the amount of bridge transactions sent by `user`   from the current chain",
        "params": {
          "user": "user"
        },
        "returns": {
          "_0": "amount of transactions"
        }
      },
      "getUserTransactionsSlice(address,uint256,uint256)": {
        "details": "getting a slice of list of user transactions",
        "params": {
          "limit_": "length of array",
          "offset_": "start index",
          "user_": "user"
        },
        "returns": {
          "transactions_": "list of user transactions"
        }
      },
      "grantRole(bytes32,address)": {
        "details": "Grants `role` to `account`. If `account` had not been already granted `role`, emits a {RoleGranted} event. Requirements: - the caller must have ``role``'s admin role. May emit a {RoleGranted} event."
      },
      "hasRole(bytes32,address)": {
        "details": "Returns `true` if `account` has been granted `role`."
      },
      "initialize(address,uint256,address,uint256,uint256,address,address[],uint256)": {
        "details": "Called once by a newly created proxy contract",
        "params": {
          "feeFulfill_": "Fee numerator (fulfill)",
          "feeSend_": "Fee numerator (send)",
          "feeWallet_": "Platform fee wallet",
          "limitPerSend_": "Limit per one send",
          "owner": "Bridge DEFAULT_ADMIN_ROLE holder",
          "relayerConsensusThreshold_": "Number of signers required to complete a transaction",
          "relayers_": "Backend signers",
          "token_": "Supported token to send"
        }
      },
      "isSupportedChain(string)": {
        "details": "getting if chain is supported",
        "params": {
          "chain": "chain name"
        },
        "returns": {
          "_0": "is chain supported"
        }
      },
      "pause()": {
        "details": "pausing the contract"
      },
      "paused()": {
        "details": "Returns true if the contract is paused, and false otherwise."
      },
      "relayersLength()": {
        "returns": {
          "_0": "amount of relayers"
        }
      },
      "removeChains(string[])": {
        "details": "remove chains from the whitelist",
        "params": {
          "chains": "chains to remove"
        }
      },
      "renounceRole(bytes32,address)": {
        "details": "Revokes `role` from the calling account. Roles are often managed via {grantRole} and {revokeRole}: this function's purpose is to provide a mechanism for accounts to lose their privileges if they are compromised (such as when a trusted device is misplaced). If the calling account had been revoked `role`, emits a {RoleRevoked} event. Requirements: - the caller must be `account`. May emit a {RoleRevoked} event."
      },
      "revokeRole(bytes32,address)": {
        "details": "Revokes `role` from `account`. If `account` had been granted `role`, emits a {RoleRevoked} event. Requirements: - the caller must have ``role``'s admin role. May emit a {RoleRevoked} event."
      },
      "send(uint256,string,string)": {
        "details": "sends the user's tokens to another chain",
        "params": {
          "amount": "amount of tokens being sent",
          "toChain": "name of target chain (e.g. \"evm.97\", \"sol.mainnet-beta\")",
          "toUser": "address of user on target chain"
        }
      },
      "setFee(uint256,uint256)": {
        "details": "set fees for send and fulfill",
        "params": {
          "feeFulfill_": "fee for fulfill as numerator over FEE_DENOMINATOR",
          "feeSend_": "fee for send as numerator over FEE_DENOMINATOR"
        }
      },
      "setFeeWallet(address)": {
        "details": "sets the wallet where fees are sent",
        "params": {
          "feeWallet_": "fee wallet"
        }
      },
      "setLimitPerSend(uint256)": {
        "details": "sets the maximum amount of tokens that can be sent in one transaction",
        "params": {
          "limitPerSend_": "limit value"
        }
      },
      "setRelayers(address[],uint256)": {
        "details": "set the list of relayers and the consensus threshold used for fulfilling",
        "params": {
          "relayerConsensusThreshold_": "number of relayers required to agree to fulfill a transaction",
          "relayers_": "list of relayers with NO DUPLICATES!! there is no check for that for gas efficiency reasons"
        }
      },
      "supportedChainList()": {
        "details": "getting a list of supported chains",
        "returns": {
          "_0": "list of supported chains"
        }
      },
      "supportsInterface(bytes4)": {
        "details": "See {IERC165-supportsInterface}."
      },
      "unpause()": {
        "details": "unpausing the contract"
      },
      "withdraw(address,address,uint256)": {
        "details": "withdraw tokens from bridge",
        "params": {
          "amount": "amount to withdraw",
          "to": "the address the tokens will be sent",
          "token_": "token to withdraw"
        }
      }
    },
    "title": "BridgeAssistTransferUpgradeable",
    "version": 1
  },
  "userdoc": {
    "kind": "user",
    "methods": {
      "initialize(address,uint256,address,uint256,uint256,address,address[],uint256)": {
        "notice": "Initializing new BridgeAssist proxy"
      }
    },
    "version": 1
  },
  "storageLayout": {
    "storage": [
      {
        "astId": 521,
        "contract": "contracts/bridges/BridgeAssistTransferUpgradeable.sol:BridgeAssistTransferUpgradeable",
        "label": "_initialized",
        "offset": 0,
        "slot": "0",
        "type": "t_uint8"
      },
      {
        "astId": 524,
        "contract": "contracts/bridges/BridgeAssistTransferUpgradeable.sol:BridgeAssistTransferUpgradeable",
        "label": "_initializing",
        "offset": 1,
        "slot": "0",
        "type": "t_bool"
      },
      {
        "astId": 1681,
        "contract": "contracts/bridges/BridgeAssistTransferUpgradeable.sol:BridgeAssistTransferUpgradeable",
        "label": "__gap",
        "offset": 0,
        "slot": "1",
        "type": "t_array(t_uint256)50_storage"
      },
      {
        "astId": 2606,
        "contract": "contracts/bridges/BridgeAssistTransferUpgradeable.sol:BridgeAssistTransferUpgradeable",
        "label": "__gap",
        "offset": 0,
        "slot": "51",
        "type": "t_array(t_uint256)50_storage"
      },
      {
        "astId": 28,
        "contract": "contracts/bridges/BridgeAssistTransferUpgradeable.sol:BridgeAssistTransferUpgradeable",
        "label": "_roles",
        "offset": 0,
        "slot": "101",
        "type": "t_mapping(t_bytes32,t_struct(RoleData)23_storage)"
      },
      {
        "astId": 335,
        "contract": "contracts/bridges/BridgeAssistTransferUpgradeable.sol:BridgeAssistTransferUpgradeable",
        "label": "__gap",
        "offset": 0,
        "slot": "102",
        "type": "t_array(t_uint256)49_storage"
      },
      {
        "astId": 705,
        "contract": "contracts/bridges/BridgeAssistTransferUpgradeable.sol:BridgeAssistTransferUpgradeable",
        "label": "_paused",
        "offset": 0,
        "slot": "151",
        "type": "t_bool"
      },
      {
        "astId": 810,
        "contract": "contracts/bridges/BridgeAssistTransferUpgradeable.sol:BridgeAssistTransferUpgradeable",
        "label": "__gap",
        "offset": 0,
        "slot": "152",
        "type": "t_array(t_uint256)49_storage"
      },
      {
        "astId": 2296,
        "contract": "contracts/bridges/BridgeAssistTransferUpgradeable.sol:BridgeAssistTransferUpgradeable",
        "label": "_hashedName",
        "offset": 0,
        "slot": "201",
        "type": "t_bytes32"
      },
      {
        "astId": 2299,
        "contract": "contracts/bridges/BridgeAssistTransferUpgradeable.sol:BridgeAssistTransferUpgradeable",
        "label": "_hashedVersion",
        "offset": 0,
        "slot": "202",
        "type": "t_bytes32"
      },
      {
        "astId": 2301,
        "contract": "contracts/bridges/BridgeAssistTransferUpgradeable.sol:BridgeAssistTransferUpgradeable",
        "label": "_name",
        "offset": 0,
        "slot": "203",
        "type": "t_string_storage"
      },
      {
        "astId": 2303,
        "contract": "contracts/bridges/BridgeAssistTransferUpgradeable.sol:BridgeAssistTransferUpgradeable",
        "label": "_version",
        "offset": 0,
        "slot": "204",
        "type": "t_string_storage"
      },
      {
        "astId": 2561,
        "contract": "contracts/bridges/BridgeAssistTransferUpgradeable.sol:BridgeAssistTransferUpgradeable",
        "label": "__gap",
        "offset": 0,
        "slot": "205",
        "type": "t_array(t_uint256)48_storage"
      },
      {
        "astId": 10668,
        "contract": "contracts/bridges/BridgeAssistTransferUpgradeable.sol:BridgeAssistTransferUpgradeable",
        "label": "TOKEN",
        "offset": 0,
        "slot": "253",
        "type": "t_address"
      },
      {
        "astId": 10670,
        "contract": "contracts/bridges/BridgeAssistTransferUpgradeable.sol:BridgeAssistTransferUpgradeable",
        "label": "feeWallet",
        "offset": 0,
        "slot": "254",
        "type": "t_address"
      },
      {
        "astId": 10672,
        "contract": "contracts/bridges/BridgeAssistTransferUpgradeable.sol:BridgeAssistTransferUpgradeable",
        "label": "limitPerSend",
        "offset": 0,
        "slot": "255",
        "type": "t_uint256"
      },
      {
        "astId": 10674,
        "contract": "contracts/bridges/BridgeAssistTransferUpgradeable.sol:BridgeAssistTransferUpgradeable",
        "label": "feeSend",
        "offset": 0,
        "slot": "256",
        "type": "t_uint256"
      },
      {
        "astId": 10676,
        "contract": "contracts/bridges/BridgeAssistTransferUpgradeable.sol:BridgeAssistTransferUpgradeable",
        "label": "feeFulfill",
        "offset": 0,
        "slot": "257",
        "type": "t_uint256"
      },
      {
        "astId": 10678,
        "contract": "contracts/bridges/BridgeAssistTransferUpgradeable.sol:BridgeAssistTransferUpgradeable",
        "label": "relayerConsensusThreshold",
        "offset": 0,
        "slot": "258",
        "type": "t_uint256"
      },
      {
        "astId": 10680,
        "contract": "contracts/bridges/BridgeAssistTransferUpgradeable.sol:BridgeAssistTransferUpgradeable",
        "label": "nonce",
        "offset": 0,
        "slot": "259",
        "type": "t_uint256"
      },
      {
        "astId": 10686,
        "contract": "contracts/bridges/BridgeAssistTransferUpgradeable.sol:BridgeAssistTransferUpgradeable",
        "label": "transactions",
        "offset": 0,
        "slot": "260",
        "type": "t_mapping(t_address,t_array(t_struct(Transaction)10637_storage)dyn_storage)"
      },
      {
        "astId": 10694,
        "contract": "contracts/bridges/BridgeAssistTransferUpgradeable.sol:BridgeAssistTransferUpgradeable",
        "label": "fulfilledAt",
        "offset": 0,
        "slot": "261",
        "type": "t_mapping(t_string_memory_ptr,t_mapping(t_string_memory_ptr,t_mapping(t_uint256,t_uint256)))"
      },
      {
        "astId": 10698,
        "contract": "contracts/bridges/BridgeAssistTransferUpgradeable.sol:BridgeAssistTransferUpgradeable",
        "label": "exchangeRateFrom",
        "offset": 0,
        "slot": "262",
        "type": "t_mapping(t_bytes32,t_uint256)"
      },
      {
        "astId": 10701,
        "contract": "contracts/bridges/BridgeAssistTransferUpgradeable.sol:BridgeAssistTransferUpgradeable",
        "label": "availableChainsToSend",
        "offset": 0,
        "slot": "263",
        "type": "t_struct(Bytes32Set)3795_storage"
      },
      {
        "astId": 10704,
        "contract": "contracts/bridges/BridgeAssistTransferUpgradeable.sol:BridgeAssistTransferUpgradeable",
        "label": "relayers",
        "offset": 0,
        "slot": "265",
        "type": "t_array(t_address)dyn_storage"
      },
      {
        "astId": 11982,
        "contract": "contracts/bridges/BridgeAssistTransferUpgradeable.sol:BridgeAssistTransferUpgradeable",
        "label": "__gap",
        "offset": 0,
        "slot": "266",
        "type": "t_array(t_uint256)45_storage"
      }
    ],
    "types": {
      "t_address": {
        "encoding": "inplace",
        "label": "address",
        "numberOfBytes": "20"
      },
      "t_array(t_address)dyn_storage": {
        "base": "t_address",
        "encoding": "dynamic_array",
        "label": "address[]",
        "numberOfBytes": "32"
      },
      "t_array(t_bytes32)dyn_storage": {
        "base": "t_bytes32",
        "encoding": "dynamic_array",
        "label": "bytes32[]",
        "numberOfBytes": "32"
      },
      "t_array(t_struct(Transaction)10637_storage)dyn_storage": {
        "base": "t_struct(Transaction)10637_storage",
        "encoding": "dynamic_array",
        "label": "struct BridgeAssistGenericUpgradeable.Transaction[]",
        "numberOfBytes": "32"
      },
      "t_array(t_uint256)45_storage": {
        "base": "t_uint256",
        "encoding": "inplace",
        "label": "uint256[45]",
        "numberOfBytes": "1440"
      },
      "t_array(t_uint256)48_storage": {
        "base": "t_uint256",
        "encoding": "inplace",
        "label": "uint256[48]",
        "numberOfBytes": "1536"
      },
      "t_array(t_uint256)49_storage": {
        "base": "t_uint256",
        "encoding": "inplace",
        "label": "uint256[49]",
        "numberOfBytes": "1568"
      },
      "t_array(t_uint256)50_storage": {
        "base": "t_uint256",
        "encoding": "inplace",
        "label": "uint256[50]",
        "numberOfBytes": "1600"
      },
      "t_bool": {
        "encoding": "inplace",
        "label": "bool",
        "numberOfBytes": "1"
      },
      "t_bytes32": {
        "encoding": "inplace",
        "label": "bytes32",
        "numberOfBytes": "32"
      },
      "t_mapping(t_address,t_array(t_struct(Transaction)10637_storage)dyn_storage)": {
        "encoding": "mapping",
        "key": "t_address",
        "label": "mapping(address => struct BridgeAssistGenericUpgradeable.Transaction[])",
        "numberOfBytes": "32",
        "value": "t_array(t_struct(Transaction)10637_storage)dyn_storage"
      },
      "t_mapping(t_address,t_bool)": {
        "encoding": "mapping",
        "key": "t_address",
        "label": "mapping(address => bool)",
        "numberOfBytes": "32",
        "value": "t_bool"
      },
      "t_mapping(t_bytes32,t_struct(RoleData)23_storage)": {
        "encoding": "mapping",
        "key": "t_bytes32",
        "label": "mapping(bytes32 => struct AccessControlUpgradeable.RoleData)",
        "numberOfBytes": "32",
        "value": "t_struct(RoleData)23_storage"
      },
      "t_mapping(t_bytes32,t_uint256)": {
        "encoding": "mapping",
        "key": "t_bytes32",
        "label": "mapping(bytes32 => uint256)",
        "numberOfBytes": "32",
        "value": "t_uint256"
      },
      "t_mapping(t_string_memory_ptr,t_mapping(t_string_memory_ptr,t_mapping(t_uint256,t_uint256)))": {
        "encoding": "mapping",
        "key": "t_string_memory_ptr",
        "label": "mapping(string => mapping(string => mapping(uint256 => uint256)))",
        "numberOfBytes": "32",
        "value": "t_mapping(t_string_memory_ptr,t_mapping(t_uint256,t_uint256))"
      },
      "t_mapping(t_string_memory_ptr,t_mapping(t_uint256,t_uint256))": {
        "encoding": "mapping",
        "key": "t_string_memory_ptr",
        "label": "mapping(string => mapping(uint256 => uint256))",
        "numberOfBytes": "32",
        "value": "t_mapping(t_uint256,t_uint256)"
      },
      "t_mapping(t_uint256,t_uint256)": {
        "encoding": "mapping",
        "key": "t_uint256",
        "label": "mapping(uint256 => uint256)",
        "numberOfBytes": "32",
        "value": "t_uint256"
      },
      "t_string_memory_ptr": {
        "encoding": "bytes",
        "label": "string",
        "numberOfBytes": "32"
      },
      "t_string_storage": {
        "encoding": "bytes",
        "label": "string",
        "numberOfBytes": "32"
      },
      "t_struct(Bytes32Set)3795_storage": {
        "encoding": "inplace",
        "label": "struct EnumerableSetUpgradeable.Bytes32Set",
        "members": [
          {
            "astId": 3794,
            "contract": "contracts/bridges/BridgeAssistTransferUpgradeable.sol:BridgeAssistTransferUpgradeable",
            "label": "_inner",
            "offset": 0,
            "slot": "0",
            "type": "t_struct(Set)3601_storage"
          }
        ],
        "numberOfBytes": "64"
      },
      "t_struct(RoleData)23_storage": {
        "encoding": "inplace",
        "label": "struct AccessControlUpgradeable.RoleData",
        "members": [
          {
            "astId": 20,
            "contract": "contracts/bridges/BridgeAssistTransferUpgradeable.sol:BridgeAssistTransferUpgradeable",
            "label": "members",
            "offset": 0,
            "slot": "0",
            "type": "t_mapping(t_address,t_bool)"
          },
          {
            "astId": 22,
            "contract": "contracts/bridges/BridgeAssistTransferUpgradeable.sol:BridgeAssistTransferUpgradeable",
            "label": "adminRole",
            "offset": 0,
            "slot": "1",
            "type": "t_bytes32"
          }
        ],
        "numberOfBytes": "64"
      },
      "t_struct(Set)3601_storage": {
        "encoding": "inplace",
        "label": "struct EnumerableSetUpgradeable.Set",
        "members": [
          {
            "astId": 3596,
            "contract": "contracts/bridges/BridgeAssistTransferUpgradeable.sol:BridgeAssistTransferUpgradeable",
            "label": "_values",
            "offset": 0,
            "slot": "0",
            "type": "t_array(t_bytes32)dyn_storage"
          },
          {
            "astId": 3600,
            "contract": "contracts/bridges/BridgeAssistTransferUpgradeable.sol:BridgeAssistTransferUpgradeable",
            "label": "_indexes",
            "offset": 0,
            "slot": "1",
            "type": "t_mapping(t_bytes32,t_uint256)"
          }
        ],
        "numberOfBytes": "64"
      },
      "t_struct(Transaction)10637_storage": {
        "encoding": "inplace",
        "label": "struct BridgeAssistGenericUpgradeable.Transaction",
        "members": [
          {
            "astId": 10622,
            "contract": "contracts/bridges/BridgeAssistTransferUpgradeable.sol:BridgeAssistTransferUpgradeable",
            "label": "amount",
            "offset": 0,
            "slot": "0",
            "type": "t_uint256"
          },
          {
            "astId": 10624,
            "contract": "contracts/bridges/BridgeAssistTransferUpgradeable.sol:BridgeAssistTransferUpgradeable",
            "label": "timestamp",
            "offset": 0,
            "slot": "1",
            "type": "t_uint256"
          },
          {
            "astId": 10626,
            "contract": "contracts/bridges/BridgeAssistTransferUpgradeable.sol:BridgeAssistTransferUpgradeable",
            "label": "fromUser",
            "offset": 0,
            "slot": "2",
            "type": "t_address"
          },
          {
            "astId": 10628,
            "contract": "contracts/bridges/BridgeAssistTransferUpgradeable.sol:BridgeAssistTransferUpgradeable",
            "label": "toUser",
            "offset": 0,
            "slot": "3",
            "type": "t_string_storage"
          },
          {
            "astId": 10630,
            "contract": "contracts/bridges/BridgeAssistTransferUpgradeable.sol:BridgeAssistTransferUpgradeable",
            "label": "fromChain",
            "offset": 0,
            "slot": "4",
            "type": "t_string_storage"
          },
          {
            "astId": 10632,
            "contract": "contracts/bridges/BridgeAssistTransferUpgradeable.sol:BridgeAssistTransferUpgradeable",
            "label": "toChain",
            "offset": 0,
            "slot": "5",
            "type": "t_string_storage"
          },
          {
            "astId": 10634,
            "contract": "contracts/bridges/BridgeAssistTransferUpgradeable.sol:BridgeAssistTransferUpgradeable",
            "label": "nonce",
            "offset": 0,
            "slot": "6",
            "type": "t_uint256"
          },
          {
            "astId": 10636,
            "contract": "contracts/bridges/BridgeAssistTransferUpgradeable.sol:BridgeAssistTransferUpgradeable",
            "label": "block",
            "offset": 0,
            "slot": "7",
            "type": "t_uint256"
          }
        ],
        "numberOfBytes": "256"
      },
      "t_uint256": {
        "encoding": "inplace",
        "label": "uint256",
        "numberOfBytes": "32"
      },
      "t_uint8": {
        "encoding": "inplace",
        "label": "uint8",
        "numberOfBytes": "1"
      }
    }
  }
}