{
  "address": "0x6cb8C82DaB692a708D0bbB533aa6A709d4CE6dCA",
  "abi": [
    {
      "inputs": [
        {
          "internalType": "string",
          "name": "name_",
          "type": "string"
        },
        {
          "internalType": "string",
          "name": "symbol_",
          "type": "string"
        },
        {
          "internalType": "uint8",
          "name": "decimals_",
          "type": "uint8"
        },
        {
          "internalType": "uint256",
          "name": "totalSupply_",
          "type": "uint256"
        },
        {
          "internalType": "address",
          "name": "owner_",
          "type": "address"
        },
        {
          "internalType": "bool",
          "name": "isLockActive_",
          "type": "bool"
        },
        {
          "internalType": "address",
          "name": "tokenOriginal_",
          "type": "address"
        },
        {
          "internalType": "uint256",
          "name": "chainIdOriginal_",
          "type": "uint256"
        }
      ],
      "stateMutability": "nonpayable",
      "type": "constructor"
    },
    {
      "anonymous": false,
      "inputs": [
        {
          "indexed": true,
          "internalType": "address",
          "name": "owner",
          "type": "address"
        },
        {
          "indexed": true,
          "internalType": "address",
          "name": "spender",
          "type": "address"
        },
        {
          "indexed": false,
          "internalType": "uint256",
          "name": "value",
          "type": "uint256"
        }
      ],
      "name": "Approval",
      "type": "event"
    },
    {
      "anonymous": false,
      "inputs": [],
      "name": "BlacklistStageDisabled",
      "type": "event"
    },
    {
      "anonymous": false,
      "inputs": [
        {
          "indexed": true,
          "internalType": "address",
          "name": "user",
          "type": "address"
        },
        {
          "indexed": false,
          "internalType": "bool",
          "name": "isBlacklisted",
          "type": "bool"
        }
      ],
      "name": "BlacklistedStatusUpdated",
      "type": "event"
    },
    {
      "anonymous": false,
      "inputs": [
        {
          "indexed": true,
          "internalType": "bytes32",
          "name": "role",
          "type": "bytes32"
        },
        {
          "indexed": true,
          "internalType": "bytes32",
          "name": "previousAdminRole",
          "type": "bytes32"
        },
        {
          "indexed": true,
          "internalType": "bytes32",
          "name": "newAdminRole",
          "type": "bytes32"
        }
      ],
      "name": "RoleAdminChanged",
      "type": "event"
    },
    {
      "anonymous": false,
      "inputs": [
        {
          "indexed": true,
          "internalType": "bytes32",
          "name": "role",
          "type": "bytes32"
        },
        {
          "indexed": true,
          "internalType": "address",
          "name": "account",
          "type": "address"
        },
        {
          "indexed": true,
          "internalType": "address",
          "name": "sender",
          "type": "address"
        }
      ],
      "name": "RoleGranted",
      "type": "event"
    },
    {
      "anonymous": false,
      "inputs": [
        {
          "indexed": true,
          "internalType": "bytes32",
          "name": "role",
          "type": "bytes32"
        },
        {
          "indexed": true,
          "internalType": "address",
          "name": "account",
          "type": "address"
        },
        {
          "indexed": true,
          "internalType": "address",
          "name": "sender",
          "type": "address"
        }
      ],
      "name": "RoleRevoked",
      "type": "event"
    },
    {
      "anonymous": false,
      "inputs": [
        {
          "indexed": true,
          "internalType": "address",
          "name": "from",
          "type": "address"
        },
        {
          "indexed": true,
          "internalType": "address",
          "name": "to",
          "type": "address"
        },
        {
          "indexed": false,
          "internalType": "uint256",
          "name": "value",
          "type": "uint256"
        }
      ],
      "name": "Transfer",
      "type": "event"
    },
    {
      "inputs": [],
      "name": "BLACKLISTER_ROLE",
      "outputs": [
        {
          "internalType": "bytes32",
          "name": "",
          "type": "bytes32"
        }
      ],
      "stateMutability": "view",
      "type": "function"
    },
    {
      "inputs": [],
      "name": "BURNER_ROLE",
      "outputs": [
        {
          "internalType": "bytes32",
          "name": "",
          "type": "bytes32"
        }
      ],
      "stateMutability": "view",
      "type": "function"
    },
    {
      "inputs": [],
      "name": "CHAIN_ID_ORIGINAL",
      "outputs": [
        {
          "internalType": "uint256",
          "name": "",
          "type": "uint256"
        }
      ],
      "stateMutability": "view",
      "type": "function"
    },
    {
      "inputs": [],
      "name": "DEFAULT_ADMIN_ROLE",
      "outputs": [
        {
          "internalType": "bytes32",
          "name": "",
          "type": "bytes32"
        }
      ],
      "stateMutability": "view",
      "type": "function"
    },
    {
      "inputs": [],
      "name": "MINTER_ROLE",
      "outputs": [
        {
          "internalType": "bytes32",
          "name": "",
          "type": "bytes32"
        }
      ],
      "stateMutability": "view",
      "type": "function"
    },
    {
      "inputs": [],
      "name": "TOKEN_ORIGINAL",
      "outputs": [
        {
          "internalType": "address",
          "name": "",
          "type": "address"
        }
      ],
      "stateMutability": "view",
      "type": "function"
    },
    {
      "inputs": [
        {
          "internalType": "address",
          "name": "owner",
          "type": "address"
        },
        {
          "internalType": "address",
          "name": "spender",
          "type": "address"
        }
      ],
      "name": "allowance",
      "outputs": [
        {
          "internalType": "uint256",
          "name": "",
          "type": "uint256"
        }
      ],
      "stateMutability": "view",
      "type": "function"
    },
    {
      "inputs": [
        {
          "internalType": "address",
          "name": "spender",
          "type": "address"
        },
        {
          "internalType": "uint256",
          "name": "amount",
          "type": "uint256"
        }
      ],
      "name": "approve",
      "outputs": [
        {
          "internalType": "bool",
          "name": "",
          "type": "bool"
        }
      ],
      "stateMutability": "nonpayable",
      "type": "function"
    },
    {
      "inputs": [
        {
          "internalType": "address",
          "name": "account",
          "type": "address"
        }
      ],
      "name": "balanceOf",
      "outputs": [
        {
          "internalType": "uint256",
          "name": "",
          "type": "uint256"
        }
      ],
      "stateMutability": "view",
      "type": "function"
    },
    {
      "inputs": [
        {
          "internalType": "address",
          "name": "account",
          "type": "address"
        },
        {
          "internalType": "uint256",
          "name": "amount",
          "type": "uint256"
        }
      ],
      "name": "burn",
      "outputs": [],
      "stateMutability": "nonpayable",
      "type": "function"
    },
    {
      "inputs": [],
      "name": "decimals",
      "outputs": [
        {
          "internalType": "uint8",
          "name": "",
          "type": "uint8"
        }
      ],
      "stateMutability": "view",
      "type": "function"
    },
    {
      "inputs": [
        {
          "internalType": "address",
          "name": "spender",
          "type": "address"
        },
        {
          "internalType": "uint256",
          "name": "subtractedValue",
          "type": "uint256"
        }
      ],
      "name": "decreaseAllowance",
      "outputs": [
        {
          "internalType": "bool",
          "name": "",
          "type": "bool"
        }
      ],
      "stateMutability": "nonpayable",
      "type": "function"
    },
    {
      "inputs": [],
      "name": "disableLockStage",
      "outputs": [],
      "stateMutability": "nonpayable",
      "type": "function"
    },
    {
      "inputs": [
        {
          "internalType": "bytes32",
          "name": "role",
          "type": "bytes32"
        }
      ],
      "name": "getRoleAdmin",
      "outputs": [
        {
          "internalType": "bytes32",
          "name": "",
          "type": "bytes32"
        }
      ],
      "stateMutability": "view",
      "type": "function"
    },
    {
      "inputs": [
        {
          "internalType": "bytes32",
          "name": "role",
          "type": "bytes32"
        },
        {
          "internalType": "address",
          "name": "account",
          "type": "address"
        }
      ],
      "name": "grantRole",
      "outputs": [],
      "stateMutability": "nonpayable",
      "type": "function"
    },
    {
      "inputs": [
        {
          "internalType": "bytes32",
          "name": "role",
          "type": "bytes32"
        },
        {
          "internalType": "address",
          "name": "account",
          "type": "address"
        }
      ],
      "name": "hasRole",
      "outputs": [
        {
          "internalType": "bool",
          "name": "",
          "type": "bool"
        }
      ],
      "stateMutability": "view",
      "type": "function"
    },
    {
      "inputs": [
        {
          "internalType": "address",
          "name": "spender",
          "type": "address"
        },
        {
          "internalType": "uint256",
          "name": "addedValue",
          "type": "uint256"
        }
      ],
      "name": "increaseAllowance",
      "outputs": [
        {
          "internalType": "bool",
          "name": "",
          "type": "bool"
        }
      ],
      "stateMutability": "nonpayable",
      "type": "function"
    },
    {
      "inputs": [
        {
          "internalType": "address",
          "name": "",
          "type": "address"
        }
      ],
      "name": "isBlacklisted",
      "outputs": [
        {
          "internalType": "bool",
          "name": "",
          "type": "bool"
        }
      ],
      "stateMutability": "view",
      "type": "function"
    },
    {
      "inputs": [],
      "name": "isLockActive",
      "outputs": [
        {
          "internalType": "bool",
          "name": "",
          "type": "bool"
        }
      ],
      "stateMutability": "view",
      "type": "function"
    },
    {
      "inputs": [
        {
          "internalType": "address",
          "name": "account",
          "type": "address"
        },
        {
          "internalType": "uint256",
          "name": "amount",
          "type": "uint256"
        }
      ],
      "name": "mint",
      "outputs": [],
      "stateMutability": "nonpayable",
      "type": "function"
    },
    {
      "inputs": [],
      "name": "name",
      "outputs": [
        {
          "internalType": "string",
          "name": "",
          "type": "string"
        }
      ],
      "stateMutability": "view",
      "type": "function"
    },
    {
      "inputs": [
        {
          "internalType": "bytes32",
          "name": "role",
          "type": "bytes32"
        },
        {
          "internalType": "address",
          "name": "account",
          "type": "address"
        }
      ],
      "name": "renounceRole",
      "outputs": [],
      "stateMutability": "nonpayable",
      "type": "function"
    },
    {
      "inputs": [
        {
          "internalType": "bytes32",
          "name": "role",
          "type": "bytes32"
        },
        {
          "internalType": "address",
          "name": "account",
          "type": "address"
        }
      ],
      "name": "revokeRole",
      "outputs": [],
      "stateMutability": "nonpayable",
      "type": "function"
    },
    {
      "inputs": [
        {
          "internalType": "address",
          "name": "user",
          "type": "address"
        },
        {
          "internalType": "bool",
          "name": "status",
          "type": "bool"
        }
      ],
      "name": "setBlacklisted",
      "outputs": [],
      "stateMutability": "nonpayable",
      "type": "function"
    },
    {
      "inputs": [
        {
          "internalType": "bytes4",
          "name": "interfaceId",
          "type": "bytes4"
        }
      ],
      "name": "supportsInterface",
      "outputs": [
        {
          "internalType": "bool",
          "name": "",
          "type": "bool"
        }
      ],
      "stateMutability": "view",
      "type": "function"
    },
    {
      "inputs": [],
      "name": "symbol",
      "outputs": [
        {
          "internalType": "string",
          "name": "",
          "type": "string"
        }
      ],
      "stateMutability": "view",
      "type": "function"
    },
    {
      "inputs": [],
      "name": "totalSupply",
      "outputs": [
        {
          "internalType": "uint256",
          "name": "",
          "type": "uint256"
        }
      ],
      "stateMutability": "view",
      "type": "function"
    },
    {
      "inputs": [
        {
          "internalType": "address",
          "name": "to",
          "type": "address"
        },
        {
          "internalType": "uint256",
          "name": "amount",
          "type": "uint256"
        }
      ],
      "name": "transfer",
      "outputs": [
        {
          "internalType": "bool",
          "name": "",
          "type": "bool"
        }
      ],
      "stateMutability": "nonpayable",
      "type": "function"
    },
    {
      "inputs": [
        {
          "internalType": "address",
          "name": "from",
          "type": "address"
        },
        {
          "internalType": "address",
          "name": "to",
          "type": "address"
        },
        {
          "internalType": "uint256",
          "name": "amount",
          "type": "uint256"
        }
      ],
      "name": "transferFrom",
      "outputs": [
        {
          "internalType": "bool",
          "name": "",
          "type": "bool"
        }
      ],
      "stateMutability": "nonpayable",
      "type": "function"
    }
  ],
  "transactionHash": "0xfc5b30728a3008a27e1ad7dff319fc13975306e477c50908cb7e3b3c576841b0",
  "args": [
    "Tether USD",
    "USDT",
    6,
    "0",
    "0x64579b9D8f8eED9a568Da0a93e93BC3D3a32F6fD",
    true,
    "0x6cb8C82DaB692a708D0bbB533aa6A709d4CE6dCA",
    11155111
  ],
  "numDeployments": 1,
  "solcInputHash": "4002e5e254812c79856d5c5172ff683d",
  "bytecode": "0x60e06040523480156200001157600080fd5b5060405162001f7c38038062001f7c8339810160408190526200003491620005a8565b8787600362000044838262000706565b50600462000053828262000706565b50505087516000036200009a5760405162461bcd60e51b815260206004820152600a602482015269456d707479206e616d6560b01b60448201526064015b60405180910390fd5b8651600003620000dc5760405162461bcd60e51b815260206004820152600c60248201526b115b5c1d1e481cde5b589bdb60a21b604482015260640162000091565b6001600160a01b038416620001345760405162461bcd60e51b815260206004820152601360248201527f4f776e65723a207a65726f206164647265737300000000000000000000000000604482015260640162000091565b6001600160a01b0382166200018c5760405162461bcd60e51b815260206004820152601c60248201527f546f6b656e206f726967696e616c3a207a65726f206164647265737300000000604482015260640162000091565b80600003620001de5760405162461bcd60e51b815260206004820152601760248201527f436861696e206964206f726967696e616c3a207a65726f000000000000000000604482015260640162000091565b87604051602001620001f19190620007d2565b6040516020818303038152906040526006908162000210919062000706565b5060ff861660c0526200023c336200022a88600a62000915565b6200023690886200092d565b62000276565b6200024960008562000348565b6007805460ff1916931515939093179092556001600160a01b031660805260a052506200095d9350505050565b6001600160a01b038216620002ce5760405162461bcd60e51b815260206004820152601f60248201527f45524332303a206d696e7420746f20746865207a65726f206164647265737300604482015260640162000091565b620002dc60008383620003d2565b8060026000828254620002f0919062000947565b90915550506001600160a01b038216600081815260208181526040808320805486019055518481527fddf252ad1be2c89b69c2b068fc378daa952ba7f163c4a11628f55a4df523b3ef910160405180910390a35b5050565b62000354828262000480565b620003445760008281526005602090815260408083206001600160a01b03851684529091529020805460ff191660011790556200038e3390565b6001600160a01b0316816001600160a01b0316837f2f8788117e7eff1d82e926ec794901d17c78024a50270940304540a733656f0d60405160405180910390a45050565b6001600160a01b03831660009081526008602052604090205460ff161580156200041557506001600160a01b03821660009081526008602052604090205460ff16155b620004635760405162461bcd60e51b815260206004820152601760248201527f5472616e73666572206973206e6f7420616c6c6f776564000000000000000000604482015260640162000091565b6200047b8383836200047b60201b620005e61760201c565b505050565b60008281526005602090815260408083206001600160a01b038516845290915290205460ff165b92915050565b634e487b7160e01b600052604160045260246000fd5b60005b83811015620004e0578181015183820152602001620004c6565b50506000910152565b600082601f830112620004fb57600080fd5b81516001600160401b0380821115620005185762000518620004ad565b604051601f8301601f19908116603f01168101908282118183101715620005435762000543620004ad565b816040528381528660208588010111156200055d57600080fd5b62000570846020830160208901620004c3565b9695505050505050565b80516001600160a01b03811681146200059257600080fd5b919050565b805180151581146200059257600080fd5b600080600080600080600080610100898b031215620005c657600080fd5b88516001600160401b0380821115620005de57600080fd5b620005ec8c838d01620004e9565b995060208b01519150808211156200060357600080fd5b50620006128b828c01620004e9565b975050604089015160ff811681146200062a57600080fd5b60608a015190965094506200064260808a016200057a565b93506200065260a08a0162000597565b92506200066260c08a016200057a565b915060e089015190509295985092959890939650565b600181811c908216806200068d57607f821691505b602082108103620006ae57634e487b7160e01b600052602260045260246000fd5b50919050565b601f8211156200047b57600081815260208120601f850160051c81016020861015620006dd5750805b601f850160051c820191505b81811015620006fe57828155600101620006e9565b505050505050565b81516001600160401b03811115620007225762000722620004ad565b6200073a8162000733845462000678565b84620006b4565b602080601f831160018114620007725760008415620007595750858301515b600019600386901b1c1916600185901b178555620006fe565b600085815260208120601f198616915b82811015620007a35788860151825594840194600190910190840162000782565b5085821015620007c25787850151600019600388901b60f8161c191681555b5050505050600190811b01905550565b60008251620007e6818460208701620004c3565b692028427269646765642960b01b920191825250600a01919050565b634e487b7160e01b600052601160045260246000fd5b600181815b80851115620008595781600019048211156200083d576200083d62000802565b808516156200084b57918102915b93841c93908002906200081d565b509250929050565b6000826200087257506001620004a7565b816200088157506000620004a7565b81600181146200089a5760028114620008a557620008c5565b6001915050620004a7565b60ff841115620008b957620008b962000802565b50506001821b620004a7565b5060208310610133831016604e8410600b8410161715620008ea575081810a620004a7565b620008f6838362000818565b80600019048211156200090d576200090d62000802565b029392505050565b60006200092660ff84168362000861565b9392505050565b8082028115828204841417620004a757620004a762000802565b80820180821115620004a757620004a762000802565b60805160a05160c0516115ef6200098d60003960006102af015260006103db0152600061031701526115ef6000f3fe608060405234801561001057600080fd5b50600436106101cf5760003560e01c806391d1485411610104578063b1317420116100a2578063d547741f11610071578063d547741f1461044c578063dd62ed3e1461045f578063f515e6f214610472578063fe575a871461049957600080fd5b8063b1317420146103fd578063cfa6e91114610405578063d01dd6d214610412578063d53913931461042557600080fd5b8063a217fddf116100de578063a217fddf146103a8578063a457c2d7146103b0578063a9059cbb146103c3578063a9bd5268146103d657600080fd5b806391d148541461037a57806395d89b411461038d5780639dc29fac1461039557600080fd5b80632f2ff15d11610171578063395093511161014b57806339509351146102ec57806340c10f19146102ff57806342ca19661461031257806370a082311461035157600080fd5b80632f2ff15d14610293578063313ce567146102a857806336568abe146102d957600080fd5b806318160ddd116101ad57806318160ddd1461022457806323b872dd14610236578063248a9ca314610249578063282c51f31461026c57600080fd5b806301ffc9a7146101d457806306fdde03146101fc578063095ea7b314610211575b600080fd5b6101e76101e23660046112be565b6104bc565b60405190151581526020015b60405180910390f35b6102046104f3565b6040516101f3919061130c565b6101e761021f36600461135b565b610585565b6002545b6040519081526020016101f3565b6101e7610244366004611385565b61059d565b6102286102573660046113c1565b60009081526005602052604090206001015490565b6102287f3c11d16cbaffd01df69ce1c404f6340ee057498f5f00246190ea54220576a84881565b6102a66102a13660046113da565b6105c1565b005b60405160ff7f00000000000000000000000000000000000000000000000000000000000000001681526020016101f3565b6102a66102e73660046113da565b6105eb565b6101e76102fa36600461135b565b61066e565b6102a661030d36600461135b565b610690565b6103397f000000000000000000000000000000000000000000000000000000000000000081565b6040516001600160a01b0390911681526020016101f3565b61022861035f366004611406565b6001600160a01b031660009081526020819052604090205490565b6101e76103883660046113da565b6106c4565b6102046106ef565b6102a66103a336600461135b565b6106fe565b610228600081565b6101e76103be36600461135b565b610732565b6101e76103d136600461135b565b6107ad565b6102287f000000000000000000000000000000000000000000000000000000000000000081565b6102a66107bb565b6007546101e79060ff1681565b6102a6610420366004611421565b610849565b6102287f9f2df0fed2c77648de5860a4cc508cd0818c85b8b8a1ab4ceeef8d981c8956a681565b6102a661045a3660046113da565b610982565b61022861046d36600461145d565b6109a7565b6102287f98db8a220cd0f09badce9f22d0ba7e93edb3d404448cc3560d391ab096ad16e981565b6101e76104a7366004611406565b60086020526000908152604090205460ff1681565b60006001600160e01b03198216637965db0b60e01b14806104ed57506301ffc9a760e01b6001600160e01b03198316145b92915050565b60606006805461050290611487565b80601f016020809104026020016040519081016040528092919081815260200182805461052e90611487565b801561057b5780601f106105505761010080835404028352916020019161057b565b820191906000526020600020905b81548152906001019060200180831161055e57829003601f168201915b5050505050905090565b6000336105938185856109d2565b5060019392505050565b6000336105ab858285610af6565b6105b6858585610b70565b506001949350505050565b6000828152600560205260409020600101546105dc81610d1f565b6105e68383610d2c565b505050565b6001600160a01b03811633146106605760405162461bcd60e51b815260206004820152602f60248201527f416363657373436f6e74726f6c3a2063616e206f6e6c792072656e6f756e636560448201526e103937b632b9903337b91039b2b63360891b60648201526084015b60405180910390fd5b61066a8282610db2565b5050565b60003361059381858561068183836109a7565b61068b91906114d7565b6109d2565b7f9f2df0fed2c77648de5860a4cc508cd0818c85b8b8a1ab4ceeef8d981c8956a66106ba81610d1f565b6105e68383610e19565b60009182526005602090815260408084206001600160a01b0393909316845291905290205460ff1690565b60606004805461050290611487565b7f3c11d16cbaffd01df69ce1c404f6340ee057498f5f00246190ea54220576a84861072881610d1f565b6105e68383610ee4565b6000338161074082866109a7565b9050838110156107a05760405162461bcd60e51b815260206004820152602560248201527f45524332303a2064656372656173656420616c6c6f77616e63652062656c6f77604482015264207a65726f60d81b6064820152608401610657565b6105b682868684036109d2565b600033610593818585610b70565b60006107c681610d1f565b60075460ff166108135760405162461bcd60e51b81526020600482015260186024820152774c6f636b207374616765206973206e6f742061637469766560401b6044820152606401610657565b6007805460ff191690556040517f3375c02508d066438dc1573133109b389e47e16e5e296ddcb3828bd9fa9e3df590600090a150565b7f98db8a220cd0f09badce9f22d0ba7e93edb3d404448cc3560d391ab096ad16e961087381610d1f565b81156108c65760075460ff166108c65760405162461bcd60e51b81526020600482015260186024820152774c6f636b207374616765206973206e6f742061637469766560401b6044820152606401610657565b6001600160a01b03831660009081526008602052604090205482151560ff9091161515036109225760405162461bcd60e51b81526020600482015260096024820152684475706c696361746560b81b6044820152606401610657565b6001600160a01b038316600081815260086020908152604091829020805460ff191686151590811790915591519182527faf0baab18491e0ce6d04f43541fbe9f346328f2751a20caf461efe3479c37630910160405180910390a2505050565b60008281526005602052604090206001015461099d81610d1f565b6105e68383610db2565b6001600160a01b03918216600090815260016020908152604080832093909416825291909152205490565b6001600160a01b038316610a345760405162461bcd60e51b8152602060048201526024808201527f45524332303a20617070726f76652066726f6d20746865207a65726f206164646044820152637265737360e01b6064820152608401610657565b6001600160a01b038216610a955760405162461bcd60e51b815260206004820152602260248201527f45524332303a20617070726f766520746f20746865207a65726f206164647265604482015261737360f01b6064820152608401610657565b6001600160a01b0383811660008181526001602090815260408083209487168084529482529182902085905590518481527f8c5be1e5ebec7d5bd14f71427d1e84f3dd0314c0f7b2291e5b200ac8c7c3b925910160405180910390a3505050565b6000610b0284846109a7565b90506000198114610b6a5781811015610b5d5760405162461bcd60e51b815260206004820152601d60248201527f45524332303a20696e73756666696369656e7420616c6c6f77616e63650000006044820152606401610657565b610b6a84848484036109d2565b50505050565b6001600160a01b038316610bd45760405162461bcd60e51b815260206004820152602560248201527f45524332303a207472616e736665722066726f6d20746865207a65726f206164604482015264647265737360d81b6064820152608401610657565b6001600160a01b038216610c365760405162461bcd60e51b815260206004820152602360248201527f45524332303a207472616e7366657220746f20746865207a65726f206164647260448201526265737360e81b6064820152608401610657565b610c41838383611022565b6001600160a01b03831660009081526020819052604090205481811015610cb95760405162461bcd60e51b815260206004820152602660248201527f45524332303a207472616e7366657220616d6f756e7420657863656564732062604482015265616c616e636560d01b6064820152608401610657565b6001600160a01b03848116600081815260208181526040808320878703905593871680835291849020805487019055925185815290927fddf252ad1be2c89b69c2b068fc378daa952ba7f163c4a11628f55a4df523b3ef910160405180910390a3610b6a565b610d2981336110b0565b50565b610d3682826106c4565b61066a5760008281526005602090815260408083206001600160a01b03851684529091529020805460ff19166001179055610d6e3390565b6001600160a01b0316816001600160a01b0316837f2f8788117e7eff1d82e926ec794901d17c78024a50270940304540a733656f0d60405160405180910390a45050565b610dbc82826106c4565b1561066a5760008281526005602090815260408083206001600160a01b0385168085529252808320805460ff1916905551339285917ff6391f5c32d9c69d2a47ea670b442974b53935d1edc7fd64eb21e047a839171b9190a45050565b6001600160a01b038216610e6f5760405162461bcd60e51b815260206004820152601f60248201527f45524332303a206d696e7420746f20746865207a65726f2061646472657373006044820152606401610657565b610e7b60008383611022565b8060026000828254610e8d91906114d7565b90915550506001600160a01b038216600081815260208181526040808320805486019055518481527fddf252ad1be2c89b69c2b068fc378daa952ba7f163c4a11628f55a4df523b3ef910160405180910390a35050565b6001600160a01b038216610f445760405162461bcd60e51b815260206004820152602160248201527f45524332303a206275726e2066726f6d20746865207a65726f206164647265736044820152607360f81b6064820152608401610657565b610f5082600083611022565b6001600160a01b03821660009081526020819052604090205481811015610fc45760405162461bcd60e51b815260206004820152602260248201527f45524332303a206275726e20616d6f756e7420657863656564732062616c616e604482015261636560f01b6064820152608401610657565b6001600160a01b0383166000818152602081815260408083208686039055600280548790039055518581529192917fddf252ad1be2c89b69c2b068fc378daa952ba7f163c4a11628f55a4df523b3ef910160405180910390a3505050565b6001600160a01b03831660009081526008602052604090205460ff1615801561106457506001600160a01b03821660009081526008602052604090205460ff16155b6105e65760405162461bcd60e51b815260206004820152601760248201527f5472616e73666572206973206e6f7420616c6c6f7765640000000000000000006044820152606401610657565b6110ba82826106c4565b61066a576110c781611109565b6110d283602061111b565b6040516020016110e39291906114ea565b60408051601f198184030181529082905262461bcd60e51b82526106579160040161130c565b60606104ed6001600160a01b03831660145b6060600061112a83600261155f565b6111359060026114d7565b67ffffffffffffffff81111561114d5761114d611576565b6040519080825280601f01601f191660200182016040528015611177576020820181803683370190505b509050600360fc1b816000815181106111925761119261158c565b60200101906001600160f81b031916908160001a905350600f60fb1b816001815181106111c1576111c161158c565b60200101906001600160f81b031916908160001a90535060006111e584600261155f565b6111f09060016114d7565b90505b6001811115611268576f181899199a1a9b1b9c1cb0b131b232b360811b85600f16601081106112245761122461158c565b1a60f81b82828151811061123a5761123a61158c565b60200101906001600160f81b031916908160001a90535060049490941c93611261816115a2565b90506111f3565b5083156112b75760405162461bcd60e51b815260206004820181905260248201527f537472696e67733a20686578206c656e67746820696e73756666696369656e746044820152606401610657565b9392505050565b6000602082840312156112d057600080fd5b81356001600160e01b0319811681146112b757600080fd5b60005b838110156113035781810151838201526020016112eb565b50506000910152565b602081526000825180602084015261132b8160408501602087016112e8565b601f01601f19169190910160400192915050565b80356001600160a01b038116811461135657600080fd5b919050565b6000806040838503121561136e57600080fd5b6113778361133f565b946020939093013593505050565b60008060006060848603121561139a57600080fd5b6113a38461133f565b92506113b16020850161133f565b9150604084013590509250925092565b6000602082840312156113d357600080fd5b5035919050565b600080604083850312156113ed57600080fd5b823591506113fd6020840161133f565b90509250929050565b60006020828403121561141857600080fd5b6112b78261133f565b6000806040838503121561143457600080fd5b61143d8361133f565b91506020830135801515811461145257600080fd5b809150509250929050565b6000806040838503121561147057600080fd5b6114798361133f565b91506113fd6020840161133f565b600181811c9082168061149b57607f821691505b6020821081036114bb57634e487b7160e01b600052602260045260246000fd5b50919050565b634e487b7160e01b600052601160045260246000fd5b808201808211156104ed576104ed6114c1565b7f416363657373436f6e74726f6c3a206163636f756e74200000000000000000008152600083516115228160178501602088016112e8565b7001034b99036b4b9b9b4b733903937b6329607d1b60179184019182015283516115538160288401602088016112e8565b01602801949350505050565b80820281158282048414176104ed576104ed6114c1565b634e487b7160e01b600052604160045260246000fd5b634e487b7160e01b600052603260045260246000fd5b6000816115b1576115b16114c1565b50600019019056fea2646970667358221220aca5822952655b0f9bac936df00b6bd9f07cfd5e585f324ca266916f4497e4cb64736f6c63430008120033",
  "devdoc": {
    "author": "gotbit",
    "details": "Includes mint, burn and optional blacklist",
    "events": {
      "Approval(address,address,uint256)": {
        "details": "Emitted when the allowance of a `spender` for an `owner` is set by a call to {approve}. `value` is the new allowance."
      },
      "RoleAdminChanged(bytes32,bytes32,bytes32)": {
        "details": "Emitted when `newAdminRole` is set as ``role``'s admin role, replacing `previousAdminRole` `DEFAULT_ADMIN_ROLE` is the starting admin for all roles, despite {RoleAdminChanged} not being emitted signaling this. _Available since v3.1._"
      },
      "RoleGranted(bytes32,address,address)": {
        "details": "Emitted when `account` is granted `role`. `sender` is the account that originated the contract call, an admin role bearer except when using {AccessControl-_setupRole}."
      },
      "RoleRevoked(bytes32,address,address)": {
        "details": "Emitted when `account` is revoked `role`. `sender` is the account that originated the contract call:   - if using `revokeRole`, it is the admin role bearer   - if using `renounceRole`, it is the role bearer (i.e. `account`)"
      },
      "Transfer(address,address,uint256)": {
        "details": "Emitted when `value` tokens are moved from one account (`from`) to another (`to`). Note that `value` may be zero."
      }
    },
    "kind": "dev",
    "methods": {
      "allowance(address,address)": {
        "details": "See {IERC20-allowance}."
      },
      "approve(address,uint256)": {
        "details": "See {IERC20-approve}. NOTE: If `amount` is the maximum `uint256`, the allowance is not updated on `transferFrom`. This is semantically equivalent to an infinite approval. Requirements: - `spender` cannot be the zero address."
      },
      "balanceOf(address)": {
        "details": "See {IERC20-balanceOf}."
      },
      "burn(address,uint256)": {
        "details": "Can only be called by BURNER_ROLE holder. The bridge must have the right to call this function.",
        "params": {
          "account": "User address",
          "amount": "Amount to burn"
        }
      },
      "constructor": {
        "params": {
          "chainIdOriginal_": "Original network chain id",
          "decimals_": "Token decimals",
          "isLockActive_": "Is lock stage enabled",
          "name_": "Token name",
          "owner_": "DEFAULT_ADMIN_ROLE holder",
          "symbol_": "Token symbol",
          "tokenOriginal_": "Initial token address on the original network",
          "totalSupply_": "Total supply (excluding decimals)"
        }
      },
      "decreaseAllowance(address,uint256)": {
        "details": "Atomically decreases the allowance granted to `spender` by the caller. This is an alternative to {approve} that can be used as a mitigation for problems described in {IERC20-approve}. Emits an {Approval} event indicating the updated allowance. Requirements: - `spender` cannot be the zero address. - `spender` must have allowance for the caller of at least `subtractedValue`."
      },
      "disableLockStage()": {
        "details": "Can only be called by DEFAULT_ADMIN_ROLE holder."
      },
      "getRoleAdmin(bytes32)": {
        "details": "Returns the admin role that controls `role`. See {grantRole} and {revokeRole}. To change a role's admin, use {_setRoleAdmin}."
      },
      "grantRole(bytes32,address)": {
        "details": "Grants `role` to `account`. If `account` had not been already granted `role`, emits a {RoleGranted} event. Requirements: - the caller must have ``role``'s admin role. May emit a {RoleGranted} event."
      },
      "hasRole(bytes32,address)": {
        "details": "Returns `true` if `account` has been granted `role`."
      },
      "increaseAllowance(address,uint256)": {
        "details": "Atomically increases the allowance granted to `spender` by the caller. This is an alternative to {approve} that can be used as a mitigation for problems described in {IERC20-approve}. Emits an {Approval} event indicating the updated allowance. Requirements: - `spender` cannot be the zero address."
      },
      "mint(address,uint256)": {
        "details": "Can only be called by MINTER_ROLE holder. The bridge must have the right to call this function.",
        "params": {
          "account": "User address",
          "amount": "Amount to mint"
        }
      },
      "renounceRole(bytes32,address)": {
        "details": "Revokes `role` from the calling account. Roles are often managed via {grantRole} and {revokeRole}: this function's purpose is to provide a mechanism for accounts to lose their privileges if they are compromised (such as when a trusted device is misplaced). If the calling account had been revoked `role`, emits a {RoleRevoked} event. Requirements: - the caller must be `account`. May emit a {RoleRevoked} event."
      },
      "revokeRole(bytes32,address)": {
        "details": "Revokes `role` from `account`. If `account` had been granted `role`, emits a {RoleRevoked} event. Requirements: - the caller must have ``role``'s admin role. May emit a {RoleRevoked} event."
      },
      "setBlacklisted(address,bool)": {
        "details": "Can only be called by BLACKLISTER_ROLE holder. Blacklisted true can only be called if lock stage is active.",
        "params": {
          "status": "Blacklisted status",
          "user": "User address"
        }
      },
      "supportsInterface(bytes4)": {
        "details": "See {IERC165-supportsInterface}."
      },
      "symbol()": {
        "details": "Returns the symbol of the token, usually a shorter version of the name."
      },
      "totalSupply()": {
        "details": "See {IERC20-totalSupply}."
      },
      "transfer(address,uint256)": {
        "details": "See {IERC20-transfer}. Requirements: - `to` cannot be the zero address. - the caller must have a balance of at least `amount`."
      },
      "transferFrom(address,address,uint256)": {
        "details": "See {IERC20-transferFrom}. Emits an {Approval} event indicating the updated allowance. This is not required by the EIP. See the note at the beginning of {ERC20}. NOTE: Does not update the allowance if the current allowance is the maximum `uint256`. Requirements: - `from` and `to` cannot be the zero address. - `from` must have a balance of at least `amount`. - the caller must have allowance for ``from``'s tokens of at least `amount`."
      }
    },
    "title": "BridgedAssetChainToken",
    "version": 1
  },
  "userdoc": {
    "kind": "user",
    "methods": {
      "burn(address,uint256)": {
        "notice": "Burns tokens from user"
      },
      "constructor": {
        "notice": "Initializes token contract"
      },
      "decimals()": {
        "notice": "Returns token decimals"
      },
      "disableLockStage()": {
        "notice": "Disables lock stage forever"
      },
      "mint(address,uint256)": {
        "notice": "Mints tokens to user"
      },
      "name()": {
        "notice": "Returns token name"
      },
      "setBlacklisted(address,bool)": {
        "notice": "Updates blacklisted status for user"
      }
    },
    "notice": "Bridged token from another chain",
    "version": 1
  },
  "storageLayout": {
    "storage": [
      {
        "astId": 4741,
        "contract": "contracts/BridgedAssetChainToken.sol:BridgedAssetChainToken",
        "label": "_balances",
        "offset": 0,
        "slot": "0",
        "type": "t_mapping(t_address,t_uint256)"
      },
      {
        "astId": 4747,
        "contract": "contracts/BridgedAssetChainToken.sol:BridgedAssetChainToken",
        "label": "_allowances",
        "offset": 0,
        "slot": "1",
        "type": "t_mapping(t_address,t_mapping(t_address,t_uint256))"
      },
      {
        "astId": 4749,
        "contract": "contracts/BridgedAssetChainToken.sol:BridgedAssetChainToken",
        "label": "_totalSupply",
        "offset": 0,
        "slot": "2",
        "type": "t_uint256"
      },
      {
        "astId": 4751,
        "contract": "contracts/BridgedAssetChainToken.sol:BridgedAssetChainToken",
        "label": "_name",
        "offset": 0,
        "slot": "3",
        "type": "t_string_storage"
      },
      {
        "astId": 4753,
        "contract": "contracts/BridgedAssetChainToken.sol:BridgedAssetChainToken",
        "label": "_symbol",
        "offset": 0,
        "slot": "4",
        "type": "t_string_storage"
      },
      {
        "astId": 4228,
        "contract": "contracts/BridgedAssetChainToken.sol:BridgedAssetChainToken",
        "label": "_roles",
        "offset": 0,
        "slot": "5",
        "type": "t_mapping(t_bytes32,t_struct(RoleData)4223_storage)"
      },
      {
        "astId": 9761,
        "contract": "contracts/BridgedAssetChainToken.sol:BridgedAssetChainToken",
        "label": "_name",
        "offset": 0,
        "slot": "6",
        "type": "t_string_storage"
      },
      {
        "astId": 9763,
        "contract": "contracts/BridgedAssetChainToken.sol:BridgedAssetChainToken",
        "label": "isLockActive",
        "offset": 0,
        "slot": "7",
        "type": "t_bool"
      },
      {
        "astId": 9767,
        "contract": "contracts/BridgedAssetChainToken.sol:BridgedAssetChainToken",
        "label": "isBlacklisted",
        "offset": 0,
        "slot": "8",
        "type": "t_mapping(t_address,t_bool)"
      }
    ],
    "types": {
      "t_address": {
        "encoding": "inplace",
        "label": "address",
        "numberOfBytes": "20"
      },
      "t_bool": {
        "encoding": "inplace",
        "label": "bool",
        "numberOfBytes": "1"
      },
      "t_bytes32": {
        "encoding": "inplace",
        "label": "bytes32",
        "numberOfBytes": "32"
      },
      "t_mapping(t_address,t_bool)": {
        "encoding": "mapping",
        "key": "t_address",
        "label": "mapping(address => bool)",
        "numberOfBytes": "32",
        "value": "t_bool"
      },
      "t_mapping(t_address,t_mapping(t_address,t_uint256))": {
        "encoding": "mapping",
        "key": "t_address",
        "label": "mapping(address => mapping(address => uint256))",
        "numberOfBytes": "32",
        "value": "t_mapping(t_address,t_uint256)"
      },
      "t_mapping(t_address,t_uint256)": {
        "encoding": "mapping",
        "key": "t_address",
        "label": "mapping(address => uint256)",
        "numberOfBytes": "32",
        "value": "t_uint256"
      },
      "t_mapping(t_bytes32,t_struct(RoleData)4223_storage)": {
        "encoding": "mapping",
        "key": "t_bytes32",
        "label": "mapping(bytes32 => struct AccessControl.RoleData)",
        "numberOfBytes": "32",
        "value": "t_struct(RoleData)4223_storage"
      },
      "t_string_storage": {
        "encoding": "bytes",
        "label": "string",
        "numberOfBytes": "32"
      },
      "t_struct(RoleData)4223_storage": {
        "encoding": "inplace",
        "label": "struct AccessControl.RoleData",
        "members": [
          {
            "astId": 4220,
            "contract": "contracts/BridgedAssetChainToken.sol:BridgedAssetChainToken",
            "label": "members",
            "offset": 0,
            "slot": "0",
            "type": "t_mapping(t_address,t_bool)"
          },
          {
            "astId": 4222,
            "contract": "contracts/BridgedAssetChainToken.sol:BridgedAssetChainToken",
            "label": "adminRole",
            "offset": 0,
            "slot": "1",
            "type": "t_bytes32"
          }
        ],
        "numberOfBytes": "64"
      },
      "t_uint256": {
        "encoding": "inplace",
        "label": "uint256",
        "numberOfBytes": "32"
      }
    }
  }
}